{
	"contracts/CrowdFunding.sol": {
		"CrowdFunding": {
			"abi": [
				{
					"inputs": [
						{
							"internalType": "uint256",
							"name": "identificador",
							"type": "uint256"
						},
						{
							"internalType": "uint256",
							"name": "cantidad",
							"type": "uint256"
						}
					],
					"name": "addFondos",
					"outputs": [],
					"stateMutability": "nonpayable",
					"type": "function"
				},
				{
					"inputs": [
						{
							"internalType": "uint256",
							"name": "cantidadObjetivo",
							"type": "uint256"
						}
					],
					"name": "addProyecto",
					"outputs": [],
					"stateMutability": "nonpayable",
					"type": "function"
				},
				{
					"inputs": [
						{
							"internalType": "uint256",
							"name": "identificador",
							"type": "uint256"
						}
					],
					"name": "cancelaProyecto",
					"outputs": [],
					"stateMutability": "nonpayable",
					"type": "function"
				},
				{
					"inputs": [],
					"name": "contador",
					"outputs": [
						{
							"internalType": "uint256",
							"name": "",
							"type": "uint256"
						}
					],
					"stateMutability": "view",
					"type": "function"
				},
				{
					"inputs": [
						{
							"internalType": "uint256",
							"name": "",
							"type": "uint256"
						}
					],
					"name": "proyectos",
					"outputs": [
						{
							"internalType": "address",
							"name": "creador",
							"type": "address"
						},
						{
							"internalType": "uint256",
							"name": "cantidadObjetivo",
							"type": "uint256"
						},
						{
							"internalType": "uint256",
							"name": "cantidadRecaudada",
							"type": "uint256"
						},
						{
							"internalType": "enum CrowdFunding.Estado",
							"name": "estado",
							"type": "uint8"
						}
					],
					"stateMutability": "view",
					"type": "function"
				}
			],
			"devdoc": {
				"kind": "dev",
				"methods": {},
				"version": 1
			},
			"evm": {
				"assembly": "    /* \"contracts/CrowdFunding.sol\":1039:2459  contract CrowdFunding {... */\n  mstore(0x40, 0x80)\n  callvalue\n  dup1\n  iszero\n  tag_1\n  jumpi\n  0x00\n  dup1\n  revert\ntag_1:\n  pop\n  dataSize(sub_0)\n  dup1\n  dataOffset(sub_0)\n  0x00\n  codecopy\n  0x00\n  return\nstop\n\nsub_0: assembly {\n        /* \"contracts/CrowdFunding.sol\":1039:2459  contract CrowdFunding {... */\n      mstore(0x40, 0x80)\n      callvalue\n      dup1\n      iszero\n      tag_1\n      jumpi\n      0x00\n      dup1\n      revert\n    tag_1:\n      pop\n      jumpi(tag_2, lt(calldatasize, 0x04))\n      shr(0xe0, calldataload(0x00))\n      dup1\n      0x1ca33b51\n      eq\n      tag_3\n      jumpi\n      dup1\n      0x53d27cc2\n      eq\n      tag_4\n      jumpi\n      dup1\n      0x63d8a26c\n      eq\n      tag_5\n      jumpi\n      dup1\n      0xb30523d1\n      eq\n      tag_6\n      jumpi\n      dup1\n      0xfc5ca186\n      eq\n      tag_7\n      jumpi\n    tag_2:\n      0x00\n      dup1\n      revert\n        /* \"contracts/CrowdFunding.sol\":1432:1807  function addProyecto(uint256 cantidadObjetivo) public {... */\n    tag_3:\n      tag_8\n      0x04\n      dup1\n      calldatasize\n      sub\n      dup2\n      add\n      swap1\n      tag_9\n      swap2\n      swap1\n      tag_10\n      jump\t// in\n    tag_9:\n      tag_11\n      jump\t// in\n    tag_8:\n      stop\n        /* \"contracts/CrowdFunding.sol\":1400:1423  uint256 public contador */\n    tag_4:\n      tag_12\n      tag_13\n      jump\t// in\n    tag_12:\n      mload(0x40)\n      tag_14\n      swap2\n      swap1\n      tag_15\n      jump\t// in\n    tag_14:\n      mload(0x40)\n      dup1\n      swap2\n      sub\n      swap1\n      return\n        /* \"contracts/CrowdFunding.sol\":1815:2016  function cancelaProyecto(uint256 identificador) public {... */\n    tag_5:\n      tag_16\n      0x04\n      dup1\n      calldatasize\n      sub\n      dup2\n      add\n      swap1\n      tag_17\n      swap2\n      swap1\n      tag_10\n      jump\t// in\n    tag_17:\n      tag_18\n      jump\t// in\n    tag_16:\n      stop\n        /* \"contracts/CrowdFunding.sol\":2024:2456  function addFondos(uint256 identificador, uint256 cantidad) public {... */\n    tag_6:\n      tag_19\n      0x04\n      dup1\n      calldatasize\n      sub\n      dup2\n      add\n      swap1\n      tag_20\n      swap2\n      swap1\n      tag_21\n      jump\t// in\n    tag_20:\n      tag_22\n      jump\t// in\n    tag_19:\n      stop\n        /* \"contracts/CrowdFunding.sol\":1348:1393  mapping(uint256 => Proyecto) public proyectos */\n    tag_7:\n      tag_23\n      0x04\n      dup1\n      calldatasize\n      sub\n      dup2\n      add\n      swap1\n      tag_24\n      swap2\n      swap1\n      tag_10\n      jump\t// in\n    tag_24:\n      tag_25\n      jump\t// in\n    tag_23:\n      mload(0x40)\n      tag_26\n      swap5\n      swap4\n      swap3\n      swap2\n      swap1\n      tag_27\n      jump\t// in\n    tag_26:\n      mload(0x40)\n      dup1\n      swap2\n      sub\n      swap1\n      return\n        /* \"contracts/CrowdFunding.sol\":1432:1807  function addProyecto(uint256 cantidadObjetivo) public {... */\n    tag_11:\n        /* \"contracts/CrowdFunding.sol\":1527:1537  msg.sender */\n      caller\n        /* \"contracts/CrowdFunding.sol\":1497:1506  proyectos */\n      0x00\n        /* \"contracts/CrowdFunding.sol\":1497:1516  proyectos[contador] */\n      dup1\n        /* \"contracts/CrowdFunding.sol\":1507:1515  contador */\n      sload(0x01)\n        /* \"contracts/CrowdFunding.sol\":1497:1516  proyectos[contador] */\n      dup2\n      mstore\n      0x20\n      add\n      swap1\n      dup2\n      mstore\n      0x20\n      add\n      0x00\n      keccak256\n        /* \"contracts/CrowdFunding.sol\":1497:1524  proyectos[contador].creador */\n      0x00\n      add\n      0x00\n        /* \"contracts/CrowdFunding.sol\":1497:1537  proyectos[contador].creador = msg.sender */\n      0x0100\n      exp\n      dup2\n      sload\n      dup2\n      0xffffffffffffffffffffffffffffffffffffffff\n      mul\n      not\n      and\n      swap1\n      dup4\n      0xffffffffffffffffffffffffffffffffffffffff\n      and\n      mul\n      or\n      swap1\n      sstore\n      pop\n        /* \"contracts/CrowdFunding.sol\":1587:1603  cantidadObjetivo */\n      dup1\n        /* \"contracts/CrowdFunding.sol\":1548:1557  proyectos */\n      0x00\n        /* \"contracts/CrowdFunding.sol\":1548:1567  proyectos[contador] */\n      dup1\n        /* \"contracts/CrowdFunding.sol\":1558:1566  contador */\n      sload(0x01)\n        /* \"contracts/CrowdFunding.sol\":1548:1567  proyectos[contador] */\n      dup2\n      mstore\n      0x20\n      add\n      swap1\n      dup2\n      mstore\n      0x20\n      add\n      0x00\n      keccak256\n        /* \"contracts/CrowdFunding.sol\":1548:1584  proyectos[contador].cantidadObjetivo */\n      0x01\n      add\n        /* \"contracts/CrowdFunding.sol\":1548:1603  proyectos[contador].cantidadObjetivo = cantidadObjetivo */\n      dup2\n      swap1\n      sstore\n      pop\n        /* \"contracts/CrowdFunding.sol\":1616:1624  contador */\n      0x01\n      0x00\n        /* \"contracts/CrowdFunding.sol\":1616:1626  contador++ */\n      dup2\n      sload\n      dup1\n      swap3\n      swap2\n      swap1\n      tag_29\n      swap1\n      tag_30\n      jump\t// in\n    tag_29:\n      swap2\n      swap1\n      pop\n      sstore\n      pop\n        /* \"contracts/CrowdFunding.sol\":1432:1807  function addProyecto(uint256 cantidadObjetivo) public {... */\n      pop\n      jump\t// out\n        /* \"contracts/CrowdFunding.sol\":1400:1423  uint256 public contador */\n    tag_13:\n      sload(0x01)\n      dup2\n      jump\t// out\n        /* \"contracts/CrowdFunding.sol\":1815:2016  function cancelaProyecto(uint256 identificador) public {... */\n    tag_18:\n        /* \"contracts/CrowdFunding.sol\":1920:1930  msg.sender */\n      caller\n        /* \"contracts/CrowdFunding.sol\":1884:1930  proyectos[identificador].creador == msg.sender */\n      0xffffffffffffffffffffffffffffffffffffffff\n      and\n        /* \"contracts/CrowdFunding.sol\":1884:1893  proyectos */\n      0x00\n        /* \"contracts/CrowdFunding.sol\":1884:1908  proyectos[identificador] */\n      dup1\n        /* \"contracts/CrowdFunding.sol\":1894:1907  identificador */\n      dup4\n        /* \"contracts/CrowdFunding.sol\":1884:1908  proyectos[identificador] */\n      dup2\n      mstore\n      0x20\n      add\n      swap1\n      dup2\n      mstore\n      0x20\n      add\n      0x00\n      keccak256\n        /* \"contracts/CrowdFunding.sol\":1884:1916  proyectos[identificador].creador */\n      0x00\n      add\n      0x00\n      swap1\n      sload\n      swap1\n      0x0100\n      exp\n      swap1\n      div\n      0xffffffffffffffffffffffffffffffffffffffff\n      and\n        /* \"contracts/CrowdFunding.sol\":1884:1930  proyectos[identificador].creador == msg.sender */\n      0xffffffffffffffffffffffffffffffffffffffff\n      and\n      sub\n        /* \"contracts/CrowdFunding.sol\":1881:2009  if(proyectos[identificador].creador == msg.sender) {... */\n      tag_32\n      jumpi\n        /* \"contracts/CrowdFunding.sol\":1981:1997  Estado.CANCELADO */\n      0x03\n        /* \"contracts/CrowdFunding.sol\":1947:1956  proyectos */\n      0x00\n        /* \"contracts/CrowdFunding.sol\":1947:1971  proyectos[identificador] */\n      dup1\n        /* \"contracts/CrowdFunding.sol\":1957:1970  identificador */\n      dup4\n        /* \"contracts/CrowdFunding.sol\":1947:1971  proyectos[identificador] */\n      dup2\n      mstore\n      0x20\n      add\n      swap1\n      dup2\n      mstore\n      0x20\n      add\n      0x00\n      keccak256\n        /* \"contracts/CrowdFunding.sol\":1947:1978  proyectos[identificador].estado */\n      0x03\n      add\n      0x00\n        /* \"contracts/CrowdFunding.sol\":1947:1997  proyectos[identificador].estado = Estado.CANCELADO */\n      0x0100\n      exp\n      dup2\n      sload\n      dup2\n      0xff\n      mul\n      not\n      and\n      swap1\n      dup4\n      0x03\n      dup2\n      gt\n      iszero\n      tag_33\n      jumpi\n      tag_34\n      tag_35\n      jump\t// in\n    tag_34:\n    tag_33:\n      mul\n      or\n      swap1\n      sstore\n      pop\n        /* \"contracts/CrowdFunding.sol\":1881:2009  if(proyectos[identificador].creador == msg.sender) {... */\n    tag_32:\n        /* \"contracts/CrowdFunding.sol\":1815:2016  function cancelaProyecto(uint256 identificador) public {... */\n      pop\n      jump\t// out\n        /* \"contracts/CrowdFunding.sol\":2024:2456  function addFondos(uint256 identificador, uint256 cantidad) public {... */\n    tag_22:\n        /* \"contracts/CrowdFunding.sol\":2148:2156  cantidad */\n      dup1\n        /* \"contracts/CrowdFunding.sol\":2102:2111  proyectos */\n      0x00\n        /* \"contracts/CrowdFunding.sol\":2102:2126  proyectos[identificador] */\n      dup1\n        /* \"contracts/CrowdFunding.sol\":2112:2125  identificador */\n      dup5\n        /* \"contracts/CrowdFunding.sol\":2102:2126  proyectos[identificador] */\n      dup2\n      mstore\n      0x20\n      add\n      swap1\n      dup2\n      mstore\n      0x20\n      add\n      0x00\n      keccak256\n        /* \"contracts/CrowdFunding.sol\":2102:2144  proyectos[identificador].cantidadRecaudada */\n      0x02\n      add\n      0x00\n        /* \"contracts/CrowdFunding.sol\":2102:2156  proyectos[identificador].cantidadRecaudada += cantidad */\n      dup3\n      dup3\n      sload\n      tag_37\n      swap2\n      swap1\n      tag_38\n      jump\t// in\n    tag_37:\n      swap3\n      pop\n      pop\n      dup2\n      swap1\n      sstore\n      pop\n        /* \"contracts/CrowdFunding.sol\":2355:2368  Estado.CREADO */\n      0x00\n        /* \"contracts/CrowdFunding.sol\":2320:2368  proyectos[identificador].estado == Estado.CREADO */\n      0x03\n      dup2\n      gt\n      iszero\n      tag_39\n      jumpi\n      tag_40\n      tag_35\n      jump\t// in\n    tag_40:\n    tag_39:\n        /* \"contracts/CrowdFunding.sol\":2320:2329  proyectos */\n      0x00\n        /* \"contracts/CrowdFunding.sol\":2320:2344  proyectos[identificador] */\n      dup1\n        /* \"contracts/CrowdFunding.sol\":2330:2343  identificador */\n      dup5\n        /* \"contracts/CrowdFunding.sol\":2320:2344  proyectos[identificador] */\n      dup2\n      mstore\n      0x20\n      add\n      swap1\n      dup2\n      mstore\n      0x20\n      add\n      0x00\n      keccak256\n        /* \"contracts/CrowdFunding.sol\":2320:2351  proyectos[identificador].estado */\n      0x03\n      add\n      0x00\n      swap1\n      sload\n      swap1\n      0x0100\n      exp\n      swap1\n      div\n      0xff\n      and\n        /* \"contracts/CrowdFunding.sol\":2320:2368  proyectos[identificador].estado == Estado.CREADO */\n      0x03\n      dup2\n      gt\n      iszero\n      tag_41\n      jumpi\n      tag_42\n      tag_35\n      jump\t// in\n    tag_42:\n    tag_41:\n      sub\n        /* \"contracts/CrowdFunding.sol\":2317:2447  if(proyectos[identificador].estado == Estado.CREADO){... */\n      tag_43\n      jumpi\n        /* \"contracts/CrowdFunding.sol\":2418:2435  Estado.EN_PROCESO */\n      0x01\n        /* \"contracts/CrowdFunding.sol\":2384:2393  proyectos */\n      0x00\n        /* \"contracts/CrowdFunding.sol\":2384:2408  proyectos[identificador] */\n      dup1\n        /* \"contracts/CrowdFunding.sol\":2394:2407  identificador */\n      dup5\n        /* \"contracts/CrowdFunding.sol\":2384:2408  proyectos[identificador] */\n      dup2\n      mstore\n      0x20\n      add\n      swap1\n      dup2\n      mstore\n      0x20\n      add\n      0x00\n      keccak256\n        /* \"contracts/CrowdFunding.sol\":2384:2415  proyectos[identificador].estado */\n      0x03\n      add\n      0x00\n        /* \"contracts/CrowdFunding.sol\":2384:2435  proyectos[identificador].estado = Estado.EN_PROCESO */\n      0x0100\n      exp\n      dup2\n      sload\n      dup2\n      0xff\n      mul\n      not\n      and\n      swap1\n      dup4\n      0x03\n      dup2\n      gt\n      iszero\n      tag_44\n      jumpi\n      tag_45\n      tag_35\n      jump\t// in\n    tag_45:\n    tag_44:\n      mul\n      or\n      swap1\n      sstore\n      pop\n        /* \"contracts/CrowdFunding.sol\":2317:2447  if(proyectos[identificador].estado == Estado.CREADO){... */\n    tag_43:\n        /* \"contracts/CrowdFunding.sol\":2024:2456  function addFondos(uint256 identificador, uint256 cantidad) public {... */\n      pop\n      pop\n      jump\t// out\n        /* \"contracts/CrowdFunding.sol\":1348:1393  mapping(uint256 => Proyecto) public proyectos */\n    tag_25:\n      mstore(0x20, 0x00)\n      dup1\n      0x00\n      mstore\n      keccak256(0x00, 0x40)\n      0x00\n      swap2\n      pop\n      swap1\n      pop\n      dup1\n      0x00\n      add\n      0x00\n      swap1\n      sload\n      swap1\n      0x0100\n      exp\n      swap1\n      div\n      0xffffffffffffffffffffffffffffffffffffffff\n      and\n      swap1\n      dup1\n      0x01\n      add\n      sload\n      swap1\n      dup1\n      0x02\n      add\n      sload\n      swap1\n      dup1\n      0x03\n      add\n      0x00\n      swap1\n      sload\n      swap1\n      0x0100\n      exp\n      swap1\n      div\n      0xff\n      and\n      swap1\n      pop\n      dup5\n      jump\t// out\n        /* \"#utility.yul\":88:205   */\n    tag_47:\n        /* \"#utility.yul\":197:198   */\n      0x00\n        /* \"#utility.yul\":194:195   */\n      dup1\n        /* \"#utility.yul\":187:199   */\n      revert\n        /* \"#utility.yul\":334:411   */\n    tag_49:\n        /* \"#utility.yul\":371:378   */\n      0x00\n        /* \"#utility.yul\":400:405   */\n      dup2\n        /* \"#utility.yul\":389:405   */\n      swap1\n      pop\n        /* \"#utility.yul\":334:411   */\n      swap2\n      swap1\n      pop\n      jump\t// out\n        /* \"#utility.yul\":417:539   */\n    tag_50:\n        /* \"#utility.yul\":490:514   */\n      tag_67\n        /* \"#utility.yul\":508:513   */\n      dup2\n        /* \"#utility.yul\":490:514   */\n      tag_49\n      jump\t// in\n    tag_67:\n        /* \"#utility.yul\":483:488   */\n      dup2\n        /* \"#utility.yul\":480:515   */\n      eq\n        /* \"#utility.yul\":470:533   */\n      tag_68\n      jumpi\n        /* \"#utility.yul\":529:530   */\n      0x00\n        /* \"#utility.yul\":526:527   */\n      dup1\n        /* \"#utility.yul\":519:531   */\n      revert\n        /* \"#utility.yul\":470:533   */\n    tag_68:\n        /* \"#utility.yul\":417:539   */\n      pop\n      jump\t// out\n        /* \"#utility.yul\":545:684   */\n    tag_51:\n        /* \"#utility.yul\":591:596   */\n      0x00\n        /* \"#utility.yul\":629:635   */\n      dup2\n        /* \"#utility.yul\":616:636   */\n      calldataload\n        /* \"#utility.yul\":607:636   */\n      swap1\n      pop\n        /* \"#utility.yul\":645:678   */\n      tag_70\n        /* \"#utility.yul\":672:677   */\n      dup2\n        /* \"#utility.yul\":645:678   */\n      tag_50\n      jump\t// in\n    tag_70:\n        /* \"#utility.yul\":545:684   */\n      swap3\n      swap2\n      pop\n      pop\n      jump\t// out\n        /* \"#utility.yul\":690:1019   */\n    tag_10:\n        /* \"#utility.yul\":749:755   */\n      0x00\n        /* \"#utility.yul\":798:800   */\n      0x20\n        /* \"#utility.yul\":786:795   */\n      dup3\n        /* \"#utility.yul\":777:784   */\n      dup5\n        /* \"#utility.yul\":773:796   */\n      sub\n        /* \"#utility.yul\":769:801   */\n      slt\n        /* \"#utility.yul\":766:885   */\n      iszero\n      tag_72\n      jumpi\n        /* \"#utility.yul\":804:883   */\n      tag_73\n      tag_47\n      jump\t// in\n    tag_73:\n        /* \"#utility.yul\":766:885   */\n    tag_72:\n        /* \"#utility.yul\":924:925   */\n      0x00\n        /* \"#utility.yul\":949:1002   */\n      tag_74\n        /* \"#utility.yul\":994:1001   */\n      dup5\n        /* \"#utility.yul\":985:991   */\n      dup3\n        /* \"#utility.yul\":974:983   */\n      dup6\n        /* \"#utility.yul\":970:992   */\n      add\n        /* \"#utility.yul\":949:1002   */\n      tag_51\n      jump\t// in\n    tag_74:\n        /* \"#utility.yul\":939:1002   */\n      swap2\n      pop\n        /* \"#utility.yul\":895:1012   */\n      pop\n        /* \"#utility.yul\":690:1019   */\n      swap3\n      swap2\n      pop\n      pop\n      jump\t// out\n        /* \"#utility.yul\":1025:1143   */\n    tag_52:\n        /* \"#utility.yul\":1112:1136   */\n      tag_76\n        /* \"#utility.yul\":1130:1135   */\n      dup2\n        /* \"#utility.yul\":1112:1136   */\n      tag_49\n      jump\t// in\n    tag_76:\n        /* \"#utility.yul\":1107:1110   */\n      dup3\n        /* \"#utility.yul\":1100:1137   */\n      mstore\n        /* \"#utility.yul\":1025:1143   */\n      pop\n      pop\n      jump\t// out\n        /* \"#utility.yul\":1149:1371   */\n    tag_15:\n        /* \"#utility.yul\":1242:1246   */\n      0x00\n        /* \"#utility.yul\":1280:1282   */\n      0x20\n        /* \"#utility.yul\":1269:1278   */\n      dup3\n        /* \"#utility.yul\":1265:1283   */\n      add\n        /* \"#utility.yul\":1257:1283   */\n      swap1\n      pop\n        /* \"#utility.yul\":1293:1364   */\n      tag_78\n        /* \"#utility.yul\":1361:1362   */\n      0x00\n        /* \"#utility.yul\":1350:1359   */\n      dup4\n        /* \"#utility.yul\":1346:1363   */\n      add\n        /* \"#utility.yul\":1337:1343   */\n      dup5\n        /* \"#utility.yul\":1293:1364   */\n      tag_52\n      jump\t// in\n    tag_78:\n        /* \"#utility.yul\":1149:1371   */\n      swap3\n      swap2\n      pop\n      pop\n      jump\t// out\n        /* \"#utility.yul\":1377:1851   */\n    tag_21:\n        /* \"#utility.yul\":1445:1451   */\n      0x00\n        /* \"#utility.yul\":1453:1459   */\n      dup1\n        /* \"#utility.yul\":1502:1504   */\n      0x40\n        /* \"#utility.yul\":1490:1499   */\n      dup4\n        /* \"#utility.yul\":1481:1488   */\n      dup6\n        /* \"#utility.yul\":1477:1500   */\n      sub\n        /* \"#utility.yul\":1473:1505   */\n      slt\n        /* \"#utility.yul\":1470:1589   */\n      iszero\n      tag_80\n      jumpi\n        /* \"#utility.yul\":1508:1587   */\n      tag_81\n      tag_47\n      jump\t// in\n    tag_81:\n        /* \"#utility.yul\":1470:1589   */\n    tag_80:\n        /* \"#utility.yul\":1628:1629   */\n      0x00\n        /* \"#utility.yul\":1653:1706   */\n      tag_82\n        /* \"#utility.yul\":1698:1705   */\n      dup6\n        /* \"#utility.yul\":1689:1695   */\n      dup3\n        /* \"#utility.yul\":1678:1687   */\n      dup7\n        /* \"#utility.yul\":1674:1696   */\n      add\n        /* \"#utility.yul\":1653:1706   */\n      tag_51\n      jump\t// in\n    tag_82:\n        /* \"#utility.yul\":1643:1706   */\n      swap3\n      pop\n        /* \"#utility.yul\":1599:1716   */\n      pop\n        /* \"#utility.yul\":1755:1757   */\n      0x20\n        /* \"#utility.yul\":1781:1834   */\n      tag_83\n        /* \"#utility.yul\":1826:1833   */\n      dup6\n        /* \"#utility.yul\":1817:1823   */\n      dup3\n        /* \"#utility.yul\":1806:1815   */\n      dup7\n        /* \"#utility.yul\":1802:1824   */\n      add\n        /* \"#utility.yul\":1781:1834   */\n      tag_51\n      jump\t// in\n    tag_83:\n        /* \"#utility.yul\":1771:1834   */\n      swap2\n      pop\n        /* \"#utility.yul\":1726:1844   */\n      pop\n        /* \"#utility.yul\":1377:1851   */\n      swap3\n      pop\n      swap3\n      swap1\n      pop\n      jump\t// out\n        /* \"#utility.yul\":1857:1983   */\n    tag_53:\n        /* \"#utility.yul\":1894:1901   */\n      0x00\n        /* \"#utility.yul\":1934:1976   */\n      0xffffffffffffffffffffffffffffffffffffffff\n        /* \"#utility.yul\":1927:1932   */\n      dup3\n        /* \"#utility.yul\":1923:1977   */\n      and\n        /* \"#utility.yul\":1912:1977   */\n      swap1\n      pop\n        /* \"#utility.yul\":1857:1983   */\n      swap2\n      swap1\n      pop\n      jump\t// out\n        /* \"#utility.yul\":1989:2085   */\n    tag_54:\n        /* \"#utility.yul\":2026:2033   */\n      0x00\n        /* \"#utility.yul\":2055:2079   */\n      tag_86\n        /* \"#utility.yul\":2073:2078   */\n      dup3\n        /* \"#utility.yul\":2055:2079   */\n      tag_53\n      jump\t// in\n    tag_86:\n        /* \"#utility.yul\":2044:2079   */\n      swap1\n      pop\n        /* \"#utility.yul\":1989:2085   */\n      swap2\n      swap1\n      pop\n      jump\t// out\n        /* \"#utility.yul\":2091:2209   */\n    tag_55:\n        /* \"#utility.yul\":2178:2202   */\n      tag_88\n        /* \"#utility.yul\":2196:2201   */\n      dup2\n        /* \"#utility.yul\":2178:2202   */\n      tag_54\n      jump\t// in\n    tag_88:\n        /* \"#utility.yul\":2173:2176   */\n      dup3\n        /* \"#utility.yul\":2166:2203   */\n      mstore\n        /* \"#utility.yul\":2091:2209   */\n      pop\n      pop\n      jump\t// out\n        /* \"#utility.yul\":2215:2395   */\n    tag_35:\n        /* \"#utility.yul\":2263:2340   */\n      0x4e487b7100000000000000000000000000000000000000000000000000000000\n        /* \"#utility.yul\":2260:2261   */\n      0x00\n        /* \"#utility.yul\":2253:2341   */\n      mstore\n        /* \"#utility.yul\":2360:2364   */\n      0x21\n        /* \"#utility.yul\":2357:2358   */\n      0x04\n        /* \"#utility.yul\":2350:2365   */\n      mstore\n        /* \"#utility.yul\":2384:2388   */\n      0x24\n        /* \"#utility.yul\":2381:2382   */\n      0x00\n        /* \"#utility.yul\":2374:2389   */\n      revert\n        /* \"#utility.yul\":2401:2514   */\n    tag_56:\n        /* \"#utility.yul\":2482:2483   */\n      0x04\n        /* \"#utility.yul\":2475:2480   */\n      dup2\n        /* \"#utility.yul\":2472:2484   */\n      lt\n        /* \"#utility.yul\":2462:2508   */\n      tag_91\n      jumpi\n        /* \"#utility.yul\":2488:2506   */\n      tag_92\n      tag_35\n      jump\t// in\n    tag_92:\n        /* \"#utility.yul\":2462:2508   */\n    tag_91:\n        /* \"#utility.yul\":2401:2514   */\n      pop\n      jump\t// out\n        /* \"#utility.yul\":2520:2647   */\n    tag_57:\n        /* \"#utility.yul\":2565:2572   */\n      0x00\n        /* \"#utility.yul\":2594:2599   */\n      dup2\n        /* \"#utility.yul\":2583:2599   */\n      swap1\n      pop\n        /* \"#utility.yul\":2600:2641   */\n      tag_94\n        /* \"#utility.yul\":2635:2640   */\n      dup3\n        /* \"#utility.yul\":2600:2641   */\n      tag_56\n      jump\t// in\n    tag_94:\n        /* \"#utility.yul\":2520:2647   */\n      swap2\n      swap1\n      pop\n      jump\t// out\n        /* \"#utility.yul\":2653:2780   */\n    tag_58:\n        /* \"#utility.yul\":2709:2718   */\n      0x00\n        /* \"#utility.yul\":2742:2774   */\n      tag_96\n        /* \"#utility.yul\":2768:2773   */\n      dup3\n        /* \"#utility.yul\":2742:2774   */\n      tag_57\n      jump\t// in\n    tag_96:\n        /* \"#utility.yul\":2729:2774   */\n      swap1\n      pop\n        /* \"#utility.yul\":2653:2780   */\n      swap2\n      swap1\n      pop\n      jump\t// out\n        /* \"#utility.yul\":2786:2929   */\n    tag_59:\n        /* \"#utility.yul\":2879:2922   */\n      tag_98\n        /* \"#utility.yul\":2916:2921   */\n      dup2\n        /* \"#utility.yul\":2879:2922   */\n      tag_58\n      jump\t// in\n    tag_98:\n        /* \"#utility.yul\":2874:2877   */\n      dup3\n        /* \"#utility.yul\":2867:2923   */\n      mstore\n        /* \"#utility.yul\":2786:2929   */\n      pop\n      pop\n      jump\t// out\n        /* \"#utility.yul\":2935:3500   */\n    tag_27:\n        /* \"#utility.yul\":3118:3122   */\n      0x00\n        /* \"#utility.yul\":3156:3159   */\n      0x80\n        /* \"#utility.yul\":3145:3154   */\n      dup3\n        /* \"#utility.yul\":3141:3160   */\n      add\n        /* \"#utility.yul\":3133:3160   */\n      swap1\n      pop\n        /* \"#utility.yul\":3170:3241   */\n      tag_100\n        /* \"#utility.yul\":3238:3239   */\n      0x00\n        /* \"#utility.yul\":3227:3236   */\n      dup4\n        /* \"#utility.yul\":3223:3240   */\n      add\n        /* \"#utility.yul\":3214:3220   */\n      dup8\n        /* \"#utility.yul\":3170:3241   */\n      tag_55\n      jump\t// in\n    tag_100:\n        /* \"#utility.yul\":3251:3323   */\n      tag_101\n        /* \"#utility.yul\":3319:3321   */\n      0x20\n        /* \"#utility.yul\":3308:3317   */\n      dup4\n        /* \"#utility.yul\":3304:3322   */\n      add\n        /* \"#utility.yul\":3295:3301   */\n      dup7\n        /* \"#utility.yul\":3251:3323   */\n      tag_52\n      jump\t// in\n    tag_101:\n        /* \"#utility.yul\":3333:3405   */\n      tag_102\n        /* \"#utility.yul\":3401:3403   */\n      0x40\n        /* \"#utility.yul\":3390:3399   */\n      dup4\n        /* \"#utility.yul\":3386:3404   */\n      add\n        /* \"#utility.yul\":3377:3383   */\n      dup6\n        /* \"#utility.yul\":3333:3405   */\n      tag_52\n      jump\t// in\n    tag_102:\n        /* \"#utility.yul\":3415:3493   */\n      tag_103\n        /* \"#utility.yul\":3489:3491   */\n      0x60\n        /* \"#utility.yul\":3478:3487   */\n      dup4\n        /* \"#utility.yul\":3474:3492   */\n      add\n        /* \"#utility.yul\":3465:3471   */\n      dup5\n        /* \"#utility.yul\":3415:3493   */\n      tag_59\n      jump\t// in\n    tag_103:\n        /* \"#utility.yul\":2935:3500   */\n      swap6\n      swap5\n      pop\n      pop\n      pop\n      pop\n      pop\n      jump\t// out\n        /* \"#utility.yul\":3506:3686   */\n    tag_60:\n        /* \"#utility.yul\":3554:3631   */\n      0x4e487b7100000000000000000000000000000000000000000000000000000000\n        /* \"#utility.yul\":3551:3552   */\n      0x00\n        /* \"#utility.yul\":3544:3632   */\n      mstore\n        /* \"#utility.yul\":3651:3655   */\n      0x11\n        /* \"#utility.yul\":3648:3649   */\n      0x04\n        /* \"#utility.yul\":3641:3656   */\n      mstore\n        /* \"#utility.yul\":3675:3679   */\n      0x24\n        /* \"#utility.yul\":3672:3673   */\n      0x00\n        /* \"#utility.yul\":3665:3680   */\n      revert\n        /* \"#utility.yul\":3692:3925   */\n    tag_30:\n        /* \"#utility.yul\":3731:3734   */\n      0x00\n        /* \"#utility.yul\":3754:3778   */\n      tag_106\n        /* \"#utility.yul\":3772:3777   */\n      dup3\n        /* \"#utility.yul\":3754:3778   */\n      tag_49\n      jump\t// in\n    tag_106:\n        /* \"#utility.yul\":3745:3778   */\n      swap2\n      pop\n        /* \"#utility.yul\":3800:3866   */\n      0xffffffffffffffffffffffffffffffffffffffffffffffffffffffffffffffff\n        /* \"#utility.yul\":3793:3798   */\n      dup3\n        /* \"#utility.yul\":3790:3867   */\n      sub\n        /* \"#utility.yul\":3787:3890   */\n      tag_107\n      jumpi\n        /* \"#utility.yul\":3870:3888   */\n      tag_108\n      tag_60\n      jump\t// in\n    tag_108:\n        /* \"#utility.yul\":3787:3890   */\n    tag_107:\n        /* \"#utility.yul\":3917:3918   */\n      0x01\n        /* \"#utility.yul\":3910:3915   */\n      dup3\n        /* \"#utility.yul\":3906:3919   */\n      add\n        /* \"#utility.yul\":3899:3919   */\n      swap1\n      pop\n        /* \"#utility.yul\":3692:3925   */\n      swap2\n      swap1\n      pop\n      jump\t// out\n        /* \"#utility.yul\":3931:4122   */\n    tag_38:\n        /* \"#utility.yul\":3971:3974   */\n      0x00\n        /* \"#utility.yul\":3990:4010   */\n      tag_110\n        /* \"#utility.yul\":4008:4009   */\n      dup3\n        /* \"#utility.yul\":3990:4010   */\n      tag_49\n      jump\t// in\n    tag_110:\n        /* \"#utility.yul\":3985:4010   */\n      swap2\n      pop\n        /* \"#utility.yul\":4024:4044   */\n      tag_111\n        /* \"#utility.yul\":4042:4043   */\n      dup4\n        /* \"#utility.yul\":4024:4044   */\n      tag_49\n      jump\t// in\n    tag_111:\n        /* \"#utility.yul\":4019:4044   */\n      swap3\n      pop\n        /* \"#utility.yul\":4067:4068   */\n      dup3\n        /* \"#utility.yul\":4064:4065   */\n      dup3\n        /* \"#utility.yul\":4060:4069   */\n      add\n        /* \"#utility.yul\":4053:4069   */\n      swap1\n      pop\n        /* \"#utility.yul\":4088:4091   */\n      dup1\n        /* \"#utility.yul\":4085:4086   */\n      dup3\n        /* \"#utility.yul\":4082:4092   */\n      gt\n        /* \"#utility.yul\":4079:4115   */\n      iszero\n      tag_112\n      jumpi\n        /* \"#utility.yul\":4095:4113   */\n      tag_113\n      tag_60\n      jump\t// in\n    tag_113:\n        /* \"#utility.yul\":4079:4115   */\n    tag_112:\n        /* \"#utility.yul\":3931:4122   */\n      swap3\n      swap2\n      pop\n      pop\n      jump\t// out\n\n    auxdata: 0xa264697066735822122041f435df2a73fc623e3a389394beeb80200288a7a316f8a2c7c92f6a0081240c64736f6c63430008130033\n}\n",
				"bytecode": {
					"linkReferences": {},
					"object": "608060405234801561001057600080fd5b50610608806100206000396000f3fe608060405234801561001057600080fd5b50600436106100575760003560e01c80631ca33b511461005c57806353d27cc21461007857806363d8a26c14610096578063b30523d1146100b2578063fc5ca186146100ce575b600080fd5b61007660048036038101906100719190610393565b610101565b005b61008061018e565b60405161008d91906103cf565b60405180910390f35b6100b060048036038101906100ab9190610393565b610194565b005b6100cc60048036038101906100c791906103ea565b61023e565b005b6100e860048036038101906100e39190610393565b6102fb565b6040516100f894939291906104e2565b60405180910390f35b33600080600154815260200190815260200160002060000160006101000a81548173ffffffffffffffffffffffffffffffffffffffff021916908373ffffffffffffffffffffffffffffffffffffffff160217905550806000806001548152602001908152602001600020600101819055506001600081548092919061018690610556565b919050555050565b60015481565b3373ffffffffffffffffffffffffffffffffffffffff1660008083815260200190815260200160002060000160009054906101000a900473ffffffffffffffffffffffffffffffffffffffff1673ffffffffffffffffffffffffffffffffffffffff160361023b57600360008083815260200190815260200160002060030160006101000a81548160ff021916908360038111156102355761023461046b565b5b02179055505b50565b806000808481526020019081526020016000206002016000828254610263919061059e565b925050819055506000600381111561027e5761027d61046b565b5b60008084815260200190815260200160002060030160009054906101000a900460ff1660038111156102b3576102b261046b565b5b036102f757600160008084815260200190815260200160002060030160006101000a81548160ff021916908360038111156102f1576102f061046b565b5b02179055505b5050565b60006020528060005260406000206000915090508060000160009054906101000a900473ffffffffffffffffffffffffffffffffffffffff16908060010154908060020154908060030160009054906101000a900460ff16905084565b600080fd5b6000819050919050565b6103708161035d565b811461037b57600080fd5b50565b60008135905061038d81610367565b92915050565b6000602082840312156103a9576103a8610358565b5b60006103b78482850161037e565b91505092915050565b6103c98161035d565b82525050565b60006020820190506103e460008301846103c0565b92915050565b6000806040838503121561040157610400610358565b5b600061040f8582860161037e565b92505060206104208582860161037e565b9150509250929050565b600073ffffffffffffffffffffffffffffffffffffffff82169050919050565b60006104558261042a565b9050919050565b6104658161044a565b82525050565b7f4e487b7100000000000000000000000000000000000000000000000000000000600052602160045260246000fd5b600481106104ab576104aa61046b565b5b50565b60008190506104bc8261049a565b919050565b60006104cc826104ae565b9050919050565b6104dc816104c1565b82525050565b60006080820190506104f7600083018761045c565b61050460208301866103c0565b61051160408301856103c0565b61051e60608301846104d3565b95945050505050565b7f4e487b7100000000000000000000000000000000000000000000000000000000600052601160045260246000fd5b60006105618261035d565b91507fffffffffffffffffffffffffffffffffffffffffffffffffffffffffffffffff820361059357610592610527565b5b600182019050919050565b60006105a98261035d565b91506105b48361035d565b92508282019050808211156105cc576105cb610527565b5b9291505056fea264697066735822122041f435df2a73fc623e3a389394beeb80200288a7a316f8a2c7c92f6a0081240c64736f6c63430008130033",
					"opcodes": "PUSH1 0x80 PUSH1 0x40 MSTORE CALLVALUE DUP1 ISZERO PUSH2 0x10 JUMPI PUSH1 0x0 DUP1 REVERT JUMPDEST POP PUSH2 0x608 DUP1 PUSH2 0x20 PUSH1 0x0 CODECOPY PUSH1 0x0 RETURN INVALID PUSH1 0x80 PUSH1 0x40 MSTORE CALLVALUE DUP1 ISZERO PUSH2 0x10 JUMPI PUSH1 0x0 DUP1 REVERT JUMPDEST POP PUSH1 0x4 CALLDATASIZE LT PUSH2 0x57 JUMPI PUSH1 0x0 CALLDATALOAD PUSH1 0xE0 SHR DUP1 PUSH4 0x1CA33B51 EQ PUSH2 0x5C JUMPI DUP1 PUSH4 0x53D27CC2 EQ PUSH2 0x78 JUMPI DUP1 PUSH4 0x63D8A26C EQ PUSH2 0x96 JUMPI DUP1 PUSH4 0xB30523D1 EQ PUSH2 0xB2 JUMPI DUP1 PUSH4 0xFC5CA186 EQ PUSH2 0xCE JUMPI JUMPDEST PUSH1 0x0 DUP1 REVERT JUMPDEST PUSH2 0x76 PUSH1 0x4 DUP1 CALLDATASIZE SUB DUP2 ADD SWAP1 PUSH2 0x71 SWAP2 SWAP1 PUSH2 0x393 JUMP JUMPDEST PUSH2 0x101 JUMP JUMPDEST STOP JUMPDEST PUSH2 0x80 PUSH2 0x18E JUMP JUMPDEST PUSH1 0x40 MLOAD PUSH2 0x8D SWAP2 SWAP1 PUSH2 0x3CF JUMP JUMPDEST PUSH1 0x40 MLOAD DUP1 SWAP2 SUB SWAP1 RETURN JUMPDEST PUSH2 0xB0 PUSH1 0x4 DUP1 CALLDATASIZE SUB DUP2 ADD SWAP1 PUSH2 0xAB SWAP2 SWAP1 PUSH2 0x393 JUMP JUMPDEST PUSH2 0x194 JUMP JUMPDEST STOP JUMPDEST PUSH2 0xCC PUSH1 0x4 DUP1 CALLDATASIZE SUB DUP2 ADD SWAP1 PUSH2 0xC7 SWAP2 SWAP1 PUSH2 0x3EA JUMP JUMPDEST PUSH2 0x23E JUMP JUMPDEST STOP JUMPDEST PUSH2 0xE8 PUSH1 0x4 DUP1 CALLDATASIZE SUB DUP2 ADD SWAP1 PUSH2 0xE3 SWAP2 SWAP1 PUSH2 0x393 JUMP JUMPDEST PUSH2 0x2FB JUMP JUMPDEST PUSH1 0x40 MLOAD PUSH2 0xF8 SWAP5 SWAP4 SWAP3 SWAP2 SWAP1 PUSH2 0x4E2 JUMP JUMPDEST PUSH1 0x40 MLOAD DUP1 SWAP2 SUB SWAP1 RETURN JUMPDEST CALLER PUSH1 0x0 DUP1 PUSH1 0x1 SLOAD DUP2 MSTORE PUSH1 0x20 ADD SWAP1 DUP2 MSTORE PUSH1 0x20 ADD PUSH1 0x0 KECCAK256 PUSH1 0x0 ADD PUSH1 0x0 PUSH2 0x100 EXP DUP2 SLOAD DUP2 PUSH20 0xFFFFFFFFFFFFFFFFFFFFFFFFFFFFFFFFFFFFFFFF MUL NOT AND SWAP1 DUP4 PUSH20 0xFFFFFFFFFFFFFFFFFFFFFFFFFFFFFFFFFFFFFFFF AND MUL OR SWAP1 SSTORE POP DUP1 PUSH1 0x0 DUP1 PUSH1 0x1 SLOAD DUP2 MSTORE PUSH1 0x20 ADD SWAP1 DUP2 MSTORE PUSH1 0x20 ADD PUSH1 0x0 KECCAK256 PUSH1 0x1 ADD DUP2 SWAP1 SSTORE POP PUSH1 0x1 PUSH1 0x0 DUP2 SLOAD DUP1 SWAP3 SWAP2 SWAP1 PUSH2 0x186 SWAP1 PUSH2 0x556 JUMP JUMPDEST SWAP2 SWAP1 POP SSTORE POP POP JUMP JUMPDEST PUSH1 0x1 SLOAD DUP2 JUMP JUMPDEST CALLER PUSH20 0xFFFFFFFFFFFFFFFFFFFFFFFFFFFFFFFFFFFFFFFF AND PUSH1 0x0 DUP1 DUP4 DUP2 MSTORE PUSH1 0x20 ADD SWAP1 DUP2 MSTORE PUSH1 0x20 ADD PUSH1 0x0 KECCAK256 PUSH1 0x0 ADD PUSH1 0x0 SWAP1 SLOAD SWAP1 PUSH2 0x100 EXP SWAP1 DIV PUSH20 0xFFFFFFFFFFFFFFFFFFFFFFFFFFFFFFFFFFFFFFFF AND PUSH20 0xFFFFFFFFFFFFFFFFFFFFFFFFFFFFFFFFFFFFFFFF AND SUB PUSH2 0x23B JUMPI PUSH1 0x3 PUSH1 0x0 DUP1 DUP4 DUP2 MSTORE PUSH1 0x20 ADD SWAP1 DUP2 MSTORE PUSH1 0x20 ADD PUSH1 0x0 KECCAK256 PUSH1 0x3 ADD PUSH1 0x0 PUSH2 0x100 EXP DUP2 SLOAD DUP2 PUSH1 0xFF MUL NOT AND SWAP1 DUP4 PUSH1 0x3 DUP2 GT ISZERO PUSH2 0x235 JUMPI PUSH2 0x234 PUSH2 0x46B JUMP JUMPDEST JUMPDEST MUL OR SWAP1 SSTORE POP JUMPDEST POP JUMP JUMPDEST DUP1 PUSH1 0x0 DUP1 DUP5 DUP2 MSTORE PUSH1 0x20 ADD SWAP1 DUP2 MSTORE PUSH1 0x20 ADD PUSH1 0x0 KECCAK256 PUSH1 0x2 ADD PUSH1 0x0 DUP3 DUP3 SLOAD PUSH2 0x263 SWAP2 SWAP1 PUSH2 0x59E JUMP JUMPDEST SWAP3 POP POP DUP2 SWAP1 SSTORE POP PUSH1 0x0 PUSH1 0x3 DUP2 GT ISZERO PUSH2 0x27E JUMPI PUSH2 0x27D PUSH2 0x46B JUMP JUMPDEST JUMPDEST PUSH1 0x0 DUP1 DUP5 DUP2 MSTORE PUSH1 0x20 ADD SWAP1 DUP2 MSTORE PUSH1 0x20 ADD PUSH1 0x0 KECCAK256 PUSH1 0x3 ADD PUSH1 0x0 SWAP1 SLOAD SWAP1 PUSH2 0x100 EXP SWAP1 DIV PUSH1 0xFF AND PUSH1 0x3 DUP2 GT ISZERO PUSH2 0x2B3 JUMPI PUSH2 0x2B2 PUSH2 0x46B JUMP JUMPDEST JUMPDEST SUB PUSH2 0x2F7 JUMPI PUSH1 0x1 PUSH1 0x0 DUP1 DUP5 DUP2 MSTORE PUSH1 0x20 ADD SWAP1 DUP2 MSTORE PUSH1 0x20 ADD PUSH1 0x0 KECCAK256 PUSH1 0x3 ADD PUSH1 0x0 PUSH2 0x100 EXP DUP2 SLOAD DUP2 PUSH1 0xFF MUL NOT AND SWAP1 DUP4 PUSH1 0x3 DUP2 GT ISZERO PUSH2 0x2F1 JUMPI PUSH2 0x2F0 PUSH2 0x46B JUMP JUMPDEST JUMPDEST MUL OR SWAP1 SSTORE POP JUMPDEST POP POP JUMP JUMPDEST PUSH1 0x0 PUSH1 0x20 MSTORE DUP1 PUSH1 0x0 MSTORE PUSH1 0x40 PUSH1 0x0 KECCAK256 PUSH1 0x0 SWAP2 POP SWAP1 POP DUP1 PUSH1 0x0 ADD PUSH1 0x0 SWAP1 SLOAD SWAP1 PUSH2 0x100 EXP SWAP1 DIV PUSH20 0xFFFFFFFFFFFFFFFFFFFFFFFFFFFFFFFFFFFFFFFF AND SWAP1 DUP1 PUSH1 0x1 ADD SLOAD SWAP1 DUP1 PUSH1 0x2 ADD SLOAD SWAP1 DUP1 PUSH1 0x3 ADD PUSH1 0x0 SWAP1 SLOAD SWAP1 PUSH2 0x100 EXP SWAP1 DIV PUSH1 0xFF AND SWAP1 POP DUP5 JUMP JUMPDEST PUSH1 0x0 DUP1 REVERT JUMPDEST PUSH1 0x0 DUP2 SWAP1 POP SWAP2 SWAP1 POP JUMP JUMPDEST PUSH2 0x370 DUP2 PUSH2 0x35D JUMP JUMPDEST DUP2 EQ PUSH2 0x37B JUMPI PUSH1 0x0 DUP1 REVERT JUMPDEST POP JUMP JUMPDEST PUSH1 0x0 DUP2 CALLDATALOAD SWAP1 POP PUSH2 0x38D DUP2 PUSH2 0x367 JUMP JUMPDEST SWAP3 SWAP2 POP POP JUMP JUMPDEST PUSH1 0x0 PUSH1 0x20 DUP3 DUP5 SUB SLT ISZERO PUSH2 0x3A9 JUMPI PUSH2 0x3A8 PUSH2 0x358 JUMP JUMPDEST JUMPDEST PUSH1 0x0 PUSH2 0x3B7 DUP5 DUP3 DUP6 ADD PUSH2 0x37E JUMP JUMPDEST SWAP2 POP POP SWAP3 SWAP2 POP POP JUMP JUMPDEST PUSH2 0x3C9 DUP2 PUSH2 0x35D JUMP JUMPDEST DUP3 MSTORE POP POP JUMP JUMPDEST PUSH1 0x0 PUSH1 0x20 DUP3 ADD SWAP1 POP PUSH2 0x3E4 PUSH1 0x0 DUP4 ADD DUP5 PUSH2 0x3C0 JUMP JUMPDEST SWAP3 SWAP2 POP POP JUMP JUMPDEST PUSH1 0x0 DUP1 PUSH1 0x40 DUP4 DUP6 SUB SLT ISZERO PUSH2 0x401 JUMPI PUSH2 0x400 PUSH2 0x358 JUMP JUMPDEST JUMPDEST PUSH1 0x0 PUSH2 0x40F DUP6 DUP3 DUP7 ADD PUSH2 0x37E JUMP JUMPDEST SWAP3 POP POP PUSH1 0x20 PUSH2 0x420 DUP6 DUP3 DUP7 ADD PUSH2 0x37E JUMP JUMPDEST SWAP2 POP POP SWAP3 POP SWAP3 SWAP1 POP JUMP JUMPDEST PUSH1 0x0 PUSH20 0xFFFFFFFFFFFFFFFFFFFFFFFFFFFFFFFFFFFFFFFF DUP3 AND SWAP1 POP SWAP2 SWAP1 POP JUMP JUMPDEST PUSH1 0x0 PUSH2 0x455 DUP3 PUSH2 0x42A JUMP JUMPDEST SWAP1 POP SWAP2 SWAP1 POP JUMP JUMPDEST PUSH2 0x465 DUP2 PUSH2 0x44A JUMP JUMPDEST DUP3 MSTORE POP POP JUMP JUMPDEST PUSH32 0x4E487B7100000000000000000000000000000000000000000000000000000000 PUSH1 0x0 MSTORE PUSH1 0x21 PUSH1 0x4 MSTORE PUSH1 0x24 PUSH1 0x0 REVERT JUMPDEST PUSH1 0x4 DUP2 LT PUSH2 0x4AB JUMPI PUSH2 0x4AA PUSH2 0x46B JUMP JUMPDEST JUMPDEST POP JUMP JUMPDEST PUSH1 0x0 DUP2 SWAP1 POP PUSH2 0x4BC DUP3 PUSH2 0x49A JUMP JUMPDEST SWAP2 SWAP1 POP JUMP JUMPDEST PUSH1 0x0 PUSH2 0x4CC DUP3 PUSH2 0x4AE JUMP JUMPDEST SWAP1 POP SWAP2 SWAP1 POP JUMP JUMPDEST PUSH2 0x4DC DUP2 PUSH2 0x4C1 JUMP JUMPDEST DUP3 MSTORE POP POP JUMP JUMPDEST PUSH1 0x0 PUSH1 0x80 DUP3 ADD SWAP1 POP PUSH2 0x4F7 PUSH1 0x0 DUP4 ADD DUP8 PUSH2 0x45C JUMP JUMPDEST PUSH2 0x504 PUSH1 0x20 DUP4 ADD DUP7 PUSH2 0x3C0 JUMP JUMPDEST PUSH2 0x511 PUSH1 0x40 DUP4 ADD DUP6 PUSH2 0x3C0 JUMP JUMPDEST PUSH2 0x51E PUSH1 0x60 DUP4 ADD DUP5 PUSH2 0x4D3 JUMP JUMPDEST SWAP6 SWAP5 POP POP POP POP POP JUMP JUMPDEST PUSH32 0x4E487B7100000000000000000000000000000000000000000000000000000000 PUSH1 0x0 MSTORE PUSH1 0x11 PUSH1 0x4 MSTORE PUSH1 0x24 PUSH1 0x0 REVERT JUMPDEST PUSH1 0x0 PUSH2 0x561 DUP3 PUSH2 0x35D JUMP JUMPDEST SWAP2 POP PUSH32 0xFFFFFFFFFFFFFFFFFFFFFFFFFFFFFFFFFFFFFFFFFFFFFFFFFFFFFFFFFFFFFFFF DUP3 SUB PUSH2 0x593 JUMPI PUSH2 0x592 PUSH2 0x527 JUMP JUMPDEST JUMPDEST PUSH1 0x1 DUP3 ADD SWAP1 POP SWAP2 SWAP1 POP JUMP JUMPDEST PUSH1 0x0 PUSH2 0x5A9 DUP3 PUSH2 0x35D JUMP JUMPDEST SWAP2 POP PUSH2 0x5B4 DUP4 PUSH2 0x35D JUMP JUMPDEST SWAP3 POP DUP3 DUP3 ADD SWAP1 POP DUP1 DUP3 GT ISZERO PUSH2 0x5CC JUMPI PUSH2 0x5CB PUSH2 0x527 JUMP JUMPDEST JUMPDEST SWAP3 SWAP2 POP POP JUMP INVALID LOG2 PUSH5 0x6970667358 0x22 SLT KECCAK256 COINBASE DELEGATECALL CALLDATALOAD 0xDF 0x2A PUSH20 0xFC623E3A389394BEEB80200288A7A316F8A2C7C9 0x2F PUSH11 0x81240C64736F6C634300 ADDMOD SGT STOP CALLER "
				},
				"gasEstimates": {
					"creation": {
						"codeDepositCost": "308800",
						"executionCost": "349",
						"totalCost": "309149"
					},
					"external": {
						"addFondos(uint256,uint256)": "infinite",
						"addProyecto(uint256)": "infinite",
						"cancelaProyecto(uint256)": "27053",
						"contador()": "2429",
						"proyectos(uint256)": "infinite"
					}
				},
				"methodIdentifiers": {
					"addFondos(uint256,uint256)": "b30523d1",
					"addProyecto(uint256)": "1ca33b51",
					"cancelaProyecto(uint256)": "63d8a26c",
					"contador()": "53d27cc2",
					"proyectos(uint256)": "fc5ca186"
				}
			},
			"storageLayout": {
				"storage": [
					{
						"astId": 21,
						"contract": "contracts/CrowdFunding.sol:CrowdFunding",
						"label": "proyectos",
						"offset": 0,
						"slot": "0",
						"type": "t_mapping(t_uint256,t_struct(Proyecto)16_storage)"
					},
					{
						"astId": 23,
						"contract": "contracts/CrowdFunding.sol:CrowdFunding",
						"label": "contador",
						"offset": 0,
						"slot": "1",
						"type": "t_uint256"
					}
				],
				"types": {
					"t_address": {
						"encoding": "inplace",
						"label": "address",
						"numberOfBytes": "20"
					},
					"t_enum(Estado)6": {
						"encoding": "inplace",
						"label": "enum CrowdFunding.Estado",
						"numberOfBytes": "1"
					},
					"t_mapping(t_uint256,t_struct(Proyecto)16_storage)": {
						"encoding": "mapping",
						"key": "t_uint256",
						"label": "mapping(uint256 => struct CrowdFunding.Proyecto)",
						"numberOfBytes": "32",
						"value": "t_struct(Proyecto)16_storage"
					},
					"t_struct(Proyecto)16_storage": {
						"encoding": "inplace",
						"label": "struct CrowdFunding.Proyecto",
						"members": [
							{
								"astId": 8,
								"contract": "contracts/CrowdFunding.sol:CrowdFunding",
								"label": "creador",
								"offset": 0,
								"slot": "0",
								"type": "t_address"
							},
							{
								"astId": 10,
								"contract": "contracts/CrowdFunding.sol:CrowdFunding",
								"label": "cantidadObjetivo",
								"offset": 0,
								"slot": "1",
								"type": "t_uint256"
							},
							{
								"astId": 12,
								"contract": "contracts/CrowdFunding.sol:CrowdFunding",
								"label": "cantidadRecaudada",
								"offset": 0,
								"slot": "2",
								"type": "t_uint256"
							},
							{
								"astId": 15,
								"contract": "contracts/CrowdFunding.sol:CrowdFunding",
								"label": "estado",
								"offset": 0,
								"slot": "3",
								"type": "t_enum(Estado)6"
							}
						],
						"numberOfBytes": "128"
					},
					"t_uint256": {
						"encoding": "inplace",
						"label": "uint256",
						"numberOfBytes": "32"
					}
				}
			},
			"userdoc": {
				"kind": "user",
				"methods": {},
				"version": 1
			}
		}
	}
}