{
	"contracts/ListAvvessoArray.sol": {
		"ListaAccesoArray": {
			"abi": [
				{
					"inputs": [],
					"stateMutability": "nonpayable",
					"type": "constructor"
				},
				{
					"inputs": [
						{
							"internalType": "address",
							"name": "persona",
							"type": "address"
						}
					],
					"name": "funcionProtegida",
					"outputs": [],
					"stateMutability": "nonpayable",
					"type": "function"
				}
			],
			"devdoc": {
				"kind": "dev",
				"methods": {},
				"version": 1
			},
			"evm": {
				"assembly": "    /* \"contracts/ListAvvessoArray.sol\":67:1387  contract ListaAccesoArray {... */\n  mstore(0x40, 0x80)\n    /* \"contracts/ListAvvessoArray.sol\":217:275  constructor() {... */\n  callvalue\n  dup1\n  iszero\n  tag_1\n  jumpi\n  0x00\n  dup1\n  revert\ntag_1:\n  pop\n    /* \"contracts/ListAvvessoArray.sol\":242:250  personas */\n  0x00\n    /* \"contracts/ListAvvessoArray.sol\":256:266  msg.sender */\n  caller\n    /* \"contracts/ListAvvessoArray.sol\":242:267  personas.push(msg.sender) */\n  swap1\n  dup1\n  0x01\n  dup2\n  sload\n  add\n  dup1\n  dup3\n  sstore\n  dup1\n  swap2\n  pop\n  pop\n  0x01\n  swap1\n  sub\n  swap1\n  0x00\n  mstore\n  keccak256(0x00, 0x20)\n  add\n  0x00\n  swap1\n  swap2\n  swap1\n  swap2\n  swap1\n  swap2\n  0x0100\n  exp\n  dup2\n  sload\n  dup2\n  0xffffffffffffffffffffffffffffffffffffffff\n  mul\n  not\n  and\n  swap1\n  dup4\n  0xffffffffffffffffffffffffffffffffffffffff\n  and\n  mul\n  or\n  swap1\n  sstore\n  pop\n    /* \"contracts/ListAvvessoArray.sol\":67:1387  contract ListaAccesoArray {... */\n  dataSize(sub_0)\n  dup1\n  dataOffset(sub_0)\n  0x00\n  codecopy\n  0x00\n  return\nstop\n\nsub_0: assembly {\n        /* \"contracts/ListAvvessoArray.sol\":67:1387  contract ListaAccesoArray {... */\n      mstore(0x40, 0x80)\n      callvalue\n      dup1\n      iszero\n      tag_1\n      jumpi\n      0x00\n      dup1\n      revert\n    tag_1:\n      pop\n      jumpi(tag_2, lt(calldatasize, 0x04))\n      shr(0xe0, calldataload(0x00))\n      dup1\n      0xcc39da88\n      eq\n      tag_3\n      jumpi\n    tag_2:\n      0x00\n      dup1\n      revert\n        /* \"contracts/ListAvvessoArray.sol\":283:428  function funcionProtegida(address persona) public {... */\n    tag_3:\n      tag_4\n      0x04\n      dup1\n      calldatasize\n      sub\n      dup2\n      add\n      swap1\n      tag_5\n      swap2\n      swap1\n      tag_6\n      jump\t// in\n    tag_5:\n      tag_7\n      jump\t// in\n    tag_4:\n      stop\n    tag_7:\n        /* \"contracts/ListAvvessoArray.sol\":347:370  estaEnLista(msg.sender) */\n      tag_9\n        /* \"contracts/ListAvvessoArray.sol\":359:369  msg.sender */\n      caller\n        /* \"contracts/ListAvvessoArray.sol\":347:358  estaEnLista */\n      tag_10\n        /* \"contracts/ListAvvessoArray.sol\":347:370  estaEnLista(msg.sender) */\n      jump\t// in\n    tag_9:\n        /* \"contracts/ListAvvessoArray.sol\":344:421  if(estaEnLista(msg.sender)) {... */\n      iszero\n      tag_11\n      jumpi\n        /* \"contracts/ListAvvessoArray.sol\":387:395  personas */\n      0x00\n        /* \"contracts/ListAvvessoArray.sol\":401:408  persona */\n      dup2\n        /* \"contracts/ListAvvessoArray.sol\":387:409  personas.push(persona) */\n      swap1\n      dup1\n      0x01\n      dup2\n      sload\n      add\n      dup1\n      dup3\n      sstore\n      dup1\n      swap2\n      pop\n      pop\n      0x01\n      swap1\n      sub\n      swap1\n      0x00\n      mstore\n      keccak256(0x00, 0x20)\n      add\n      0x00\n      swap1\n      swap2\n      swap1\n      swap2\n      swap1\n      swap2\n      0x0100\n      exp\n      dup2\n      sload\n      dup2\n      0xffffffffffffffffffffffffffffffffffffffff\n      mul\n      not\n      and\n      swap1\n      dup4\n      0xffffffffffffffffffffffffffffffffffffffff\n      and\n      mul\n      or\n      swap1\n      sstore\n      pop\n        /* \"contracts/ListAvvessoArray.sol\":344:421  if(estaEnLista(msg.sender)) {... */\n    tag_11:\n        /* \"contracts/ListAvvessoArray.sol\":283:428  function funcionProtegida(address persona) public {... */\n      pop\n      jump\t// out\n        /* \"contracts/ListAvvessoArray.sol\":539:1384  function estaEnLista(address buscado) private view returns(bool) {... */\n    tag_10:\n        /* \"contracts/ListAvvessoArray.sol\":598:602  bool */\n      0x00\n        /* \"contracts/ListAvvessoArray.sol\":615:630  bool encontrado */\n      dup1\n        /* \"contracts/ListAvvessoArray.sol\":633:638  false */\n      0x00\n        /* \"contracts/ListAvvessoArray.sol\":615:638  bool encontrado = false */\n      swap1\n      pop\n        /* \"contracts/ListAvvessoArray.sol\":1192:1201  uint256 i */\n      0x00\n        /* \"contracts/ListAvvessoArray.sol\":1188:1339  for(uint256 i = 0; i < personas.length; i++) {... */\n    tag_14:\n        /* \"contracts/ListAvvessoArray.sol\":1211:1219  personas */\n      0x00\n        /* \"contracts/ListAvvessoArray.sol\":1211:1226  personas.length */\n      dup1\n      sload\n      swap1\n      pop\n        /* \"contracts/ListAvvessoArray.sol\":1207:1208  i */\n      dup2\n        /* \"contracts/ListAvvessoArray.sol\":1207:1226  i < personas.length */\n      lt\n        /* \"contracts/ListAvvessoArray.sol\":1188:1339  for(uint256 i = 0; i < personas.length; i++) {... */\n      iszero\n      tag_15\n      jumpi\n        /* \"contracts/ListAvvessoArray.sol\":1266:1273  buscado */\n      dup4\n        /* \"contracts/ListAvvessoArray.sol\":1251:1273  personas[i] == buscado */\n      0xffffffffffffffffffffffffffffffffffffffff\n      and\n        /* \"contracts/ListAvvessoArray.sol\":1251:1259  personas */\n      0x00\n        /* \"contracts/ListAvvessoArray.sol\":1260:1261  i */\n      dup3\n        /* \"contracts/ListAvvessoArray.sol\":1251:1262  personas[i] */\n      dup2\n      sload\n      dup2\n      lt\n      tag_17\n      jumpi\n      tag_18\n      tag_19\n      jump\t// in\n    tag_18:\n    tag_17:\n      swap1\n      0x00\n      mstore\n      keccak256(0x00, 0x20)\n      add\n      0x00\n      swap1\n      sload\n      swap1\n      0x0100\n      exp\n      swap1\n      div\n      0xffffffffffffffffffffffffffffffffffffffff\n      and\n        /* \"contracts/ListAvvessoArray.sol\":1251:1273  personas[i] == buscado */\n      0xffffffffffffffffffffffffffffffffffffffff\n      and\n      sub\n        /* \"contracts/ListAvvessoArray.sol\":1248:1328  if(personas[i] == buscado)  {... */\n      tag_21\n      jumpi\n        /* \"contracts/ListAvvessoArray.sol\":1308:1312  true */\n      0x01\n        /* \"contracts/ListAvvessoArray.sol\":1295:1312  encontrado = true */\n      swap2\n      pop\n        /* \"contracts/ListAvvessoArray.sol\":1248:1328  if(personas[i] == buscado)  {... */\n    tag_21:\n        /* \"contracts/ListAvvessoArray.sol\":1228:1231  i++ */\n      dup1\n      dup1\n      tag_22\n      swap1\n      tag_23\n      jump\t// in\n    tag_22:\n      swap2\n      pop\n      pop\n        /* \"contracts/ListAvvessoArray.sol\":1188:1339  for(uint256 i = 0; i < personas.length; i++) {... */\n      jump(tag_14)\n    tag_15:\n      pop\n        /* \"contracts/ListAvvessoArray.sol\":1366:1376  encontrado */\n      dup1\n        /* \"contracts/ListAvvessoArray.sol\":1359:1376  return encontrado */\n      swap2\n      pop\n      pop\n        /* \"contracts/ListAvvessoArray.sol\":539:1384  function estaEnLista(address buscado) private view returns(bool) {... */\n      swap2\n      swap1\n      pop\n      jump\t// out\n        /* \"#utility.yul\":88:205   */\n    tag_25:\n        /* \"#utility.yul\":197:198   */\n      0x00\n        /* \"#utility.yul\":194:195   */\n      dup1\n        /* \"#utility.yul\":187:199   */\n      revert\n        /* \"#utility.yul\":334:460   */\n    tag_27:\n        /* \"#utility.yul\":371:378   */\n      0x00\n        /* \"#utility.yul\":411:453   */\n      0xffffffffffffffffffffffffffffffffffffffff\n        /* \"#utility.yul\":404:409   */\n      dup3\n        /* \"#utility.yul\":400:454   */\n      and\n        /* \"#utility.yul\":389:454   */\n      swap1\n      pop\n        /* \"#utility.yul\":334:460   */\n      swap2\n      swap1\n      pop\n      jump\t// out\n        /* \"#utility.yul\":466:562   */\n    tag_28:\n        /* \"#utility.yul\":503:510   */\n      0x00\n        /* \"#utility.yul\":532:556   */\n      tag_39\n        /* \"#utility.yul\":550:555   */\n      dup3\n        /* \"#utility.yul\":532:556   */\n      tag_27\n      jump\t// in\n    tag_39:\n        /* \"#utility.yul\":521:556   */\n      swap1\n      pop\n        /* \"#utility.yul\":466:562   */\n      swap2\n      swap1\n      pop\n      jump\t// out\n        /* \"#utility.yul\":568:690   */\n    tag_29:\n        /* \"#utility.yul\":641:665   */\n      tag_41\n        /* \"#utility.yul\":659:664   */\n      dup2\n        /* \"#utility.yul\":641:665   */\n      tag_28\n      jump\t// in\n    tag_41:\n        /* \"#utility.yul\":634:639   */\n      dup2\n        /* \"#utility.yul\":631:666   */\n      eq\n        /* \"#utility.yul\":621:684   */\n      tag_42\n      jumpi\n        /* \"#utility.yul\":680:681   */\n      0x00\n        /* \"#utility.yul\":677:678   */\n      dup1\n        /* \"#utility.yul\":670:682   */\n      revert\n        /* \"#utility.yul\":621:684   */\n    tag_42:\n        /* \"#utility.yul\":568:690   */\n      pop\n      jump\t// out\n        /* \"#utility.yul\":696:835   */\n    tag_30:\n        /* \"#utility.yul\":742:747   */\n      0x00\n        /* \"#utility.yul\":780:786   */\n      dup2\n        /* \"#utility.yul\":767:787   */\n      calldataload\n        /* \"#utility.yul\":758:787   */\n      swap1\n      pop\n        /* \"#utility.yul\":796:829   */\n      tag_44\n        /* \"#utility.yul\":823:828   */\n      dup2\n        /* \"#utility.yul\":796:829   */\n      tag_29\n      jump\t// in\n    tag_44:\n        /* \"#utility.yul\":696:835   */\n      swap3\n      swap2\n      pop\n      pop\n      jump\t// out\n        /* \"#utility.yul\":841:1170   */\n    tag_6:\n        /* \"#utility.yul\":900:906   */\n      0x00\n        /* \"#utility.yul\":949:951   */\n      0x20\n        /* \"#utility.yul\":937:946   */\n      dup3\n        /* \"#utility.yul\":928:935   */\n      dup5\n        /* \"#utility.yul\":924:947   */\n      sub\n        /* \"#utility.yul\":920:952   */\n      slt\n        /* \"#utility.yul\":917:1036   */\n      iszero\n      tag_46\n      jumpi\n        /* \"#utility.yul\":955:1034   */\n      tag_47\n      tag_25\n      jump\t// in\n    tag_47:\n        /* \"#utility.yul\":917:1036   */\n    tag_46:\n        /* \"#utility.yul\":1075:1076   */\n      0x00\n        /* \"#utility.yul\":1100:1153   */\n      tag_48\n        /* \"#utility.yul\":1145:1152   */\n      dup5\n        /* \"#utility.yul\":1136:1142   */\n      dup3\n        /* \"#utility.yul\":1125:1134   */\n      dup6\n        /* \"#utility.yul\":1121:1143   */\n      add\n        /* \"#utility.yul\":1100:1153   */\n      tag_30\n      jump\t// in\n    tag_48:\n        /* \"#utility.yul\":1090:1153   */\n      swap2\n      pop\n        /* \"#utility.yul\":1046:1163   */\n      pop\n        /* \"#utility.yul\":841:1170   */\n      swap3\n      swap2\n      pop\n      pop\n      jump\t// out\n        /* \"#utility.yul\":1176:1356   */\n    tag_19:\n        /* \"#utility.yul\":1224:1301   */\n      0x4e487b7100000000000000000000000000000000000000000000000000000000\n        /* \"#utility.yul\":1221:1222   */\n      0x00\n        /* \"#utility.yul\":1214:1302   */\n      mstore\n        /* \"#utility.yul\":1321:1325   */\n      0x32\n        /* \"#utility.yul\":1318:1319   */\n      0x04\n        /* \"#utility.yul\":1311:1326   */\n      mstore\n        /* \"#utility.yul\":1345:1349   */\n      0x24\n        /* \"#utility.yul\":1342:1343   */\n      0x00\n        /* \"#utility.yul\":1335:1350   */\n      revert\n        /* \"#utility.yul\":1362:1542   */\n    tag_31:\n        /* \"#utility.yul\":1410:1487   */\n      0x4e487b7100000000000000000000000000000000000000000000000000000000\n        /* \"#utility.yul\":1407:1408   */\n      0x00\n        /* \"#utility.yul\":1400:1488   */\n      mstore\n        /* \"#utility.yul\":1507:1511   */\n      0x11\n        /* \"#utility.yul\":1504:1505   */\n      0x04\n        /* \"#utility.yul\":1497:1512   */\n      mstore\n        /* \"#utility.yul\":1531:1535   */\n      0x24\n        /* \"#utility.yul\":1528:1529   */\n      0x00\n        /* \"#utility.yul\":1521:1536   */\n      revert\n        /* \"#utility.yul\":1548:1625   */\n    tag_32:\n        /* \"#utility.yul\":1585:1592   */\n      0x00\n        /* \"#utility.yul\":1614:1619   */\n      dup2\n        /* \"#utility.yul\":1603:1619   */\n      swap1\n      pop\n        /* \"#utility.yul\":1548:1625   */\n      swap2\n      swap1\n      pop\n      jump\t// out\n        /* \"#utility.yul\":1631:1864   */\n    tag_23:\n        /* \"#utility.yul\":1670:1673   */\n      0x00\n        /* \"#utility.yul\":1693:1717   */\n      tag_53\n        /* \"#utility.yul\":1711:1716   */\n      dup3\n        /* \"#utility.yul\":1693:1717   */\n      tag_32\n      jump\t// in\n    tag_53:\n        /* \"#utility.yul\":1684:1717   */\n      swap2\n      pop\n        /* \"#utility.yul\":1739:1805   */\n      0xffffffffffffffffffffffffffffffffffffffffffffffffffffffffffffffff\n        /* \"#utility.yul\":1732:1737   */\n      dup3\n        /* \"#utility.yul\":1729:1806   */\n      sub\n        /* \"#utility.yul\":1726:1829   */\n      tag_54\n      jumpi\n        /* \"#utility.yul\":1809:1827   */\n      tag_55\n      tag_31\n      jump\t// in\n    tag_55:\n        /* \"#utility.yul\":1726:1829   */\n    tag_54:\n        /* \"#utility.yul\":1856:1857   */\n      0x01\n        /* \"#utility.yul\":1849:1854   */\n      dup3\n        /* \"#utility.yul\":1845:1858   */\n      add\n        /* \"#utility.yul\":1838:1858   */\n      swap1\n      pop\n        /* \"#utility.yul\":1631:1864   */\n      swap2\n      swap1\n      pop\n      jump\t// out\n\n    auxdata: 0xa264697066735822122075a192904bb3b25f9c71914700db0b993b9d16d2fd850a72a3adba809c1694f864736f6c63430008130033\n}\n",
				"bytecode": {
					"linkReferences": {},
					"object": "608060405234801561001057600080fd5b506000339080600181540180825580915050600190039060005260206000200160009091909190916101000a81548173ffffffffffffffffffffffffffffffffffffffff021916908373ffffffffffffffffffffffffffffffffffffffff1602179055506102e1806100836000396000f3fe608060405234801561001057600080fd5b506004361061002b5760003560e01c8063cc39da8814610030575b600080fd5b61004a600480360381019061004591906101ce565b61004c565b005b610055336100c1565b156100be576000819080600181540180825580915050600190039060005260206000200160009091909190916101000a81548173ffffffffffffffffffffffffffffffffffffffff021916908373ffffffffffffffffffffffffffffffffffffffff1602179055505b50565b6000806000905060005b600080549050811015610161578373ffffffffffffffffffffffffffffffffffffffff1660008281548110610103576101026101fb565b5b9060005260206000200160009054906101000a900473ffffffffffffffffffffffffffffffffffffffff1673ffffffffffffffffffffffffffffffffffffffff160361014e57600191505b808061015990610263565b9150506100cb565b5080915050919050565b600080fd5b600073ffffffffffffffffffffffffffffffffffffffff82169050919050565b600061019b82610170565b9050919050565b6101ab81610190565b81146101b657600080fd5b50565b6000813590506101c8816101a2565b92915050565b6000602082840312156101e4576101e361016b565b5b60006101f2848285016101b9565b91505092915050565b7f4e487b7100000000000000000000000000000000000000000000000000000000600052603260045260246000fd5b7f4e487b7100000000000000000000000000000000000000000000000000000000600052601160045260246000fd5b6000819050919050565b600061026e82610259565b91507fffffffffffffffffffffffffffffffffffffffffffffffffffffffffffffffff82036102a05761029f61022a565b5b60018201905091905056fea264697066735822122075a192904bb3b25f9c71914700db0b993b9d16d2fd850a72a3adba809c1694f864736f6c63430008130033",
					"opcodes": "PUSH1 0x80 PUSH1 0x40 MSTORE CALLVALUE DUP1 ISZERO PUSH2 0x10 JUMPI PUSH1 0x0 DUP1 REVERT JUMPDEST POP PUSH1 0x0 CALLER SWAP1 DUP1 PUSH1 0x1 DUP2 SLOAD ADD DUP1 DUP3 SSTORE DUP1 SWAP2 POP POP PUSH1 0x1 SWAP1 SUB SWAP1 PUSH1 0x0 MSTORE PUSH1 0x20 PUSH1 0x0 KECCAK256 ADD PUSH1 0x0 SWAP1 SWAP2 SWAP1 SWAP2 SWAP1 SWAP2 PUSH2 0x100 EXP DUP2 SLOAD DUP2 PUSH20 0xFFFFFFFFFFFFFFFFFFFFFFFFFFFFFFFFFFFFFFFF MUL NOT AND SWAP1 DUP4 PUSH20 0xFFFFFFFFFFFFFFFFFFFFFFFFFFFFFFFFFFFFFFFF AND MUL OR SWAP1 SSTORE POP PUSH2 0x2E1 DUP1 PUSH2 0x83 PUSH1 0x0 CODECOPY PUSH1 0x0 RETURN INVALID PUSH1 0x80 PUSH1 0x40 MSTORE CALLVALUE DUP1 ISZERO PUSH2 0x10 JUMPI PUSH1 0x0 DUP1 REVERT JUMPDEST POP PUSH1 0x4 CALLDATASIZE LT PUSH2 0x2B JUMPI PUSH1 0x0 CALLDATALOAD PUSH1 0xE0 SHR DUP1 PUSH4 0xCC39DA88 EQ PUSH2 0x30 JUMPI JUMPDEST PUSH1 0x0 DUP1 REVERT JUMPDEST PUSH2 0x4A PUSH1 0x4 DUP1 CALLDATASIZE SUB DUP2 ADD SWAP1 PUSH2 0x45 SWAP2 SWAP1 PUSH2 0x1CE JUMP JUMPDEST PUSH2 0x4C JUMP JUMPDEST STOP JUMPDEST PUSH2 0x55 CALLER PUSH2 0xC1 JUMP JUMPDEST ISZERO PUSH2 0xBE JUMPI PUSH1 0x0 DUP2 SWAP1 DUP1 PUSH1 0x1 DUP2 SLOAD ADD DUP1 DUP3 SSTORE DUP1 SWAP2 POP POP PUSH1 0x1 SWAP1 SUB SWAP1 PUSH1 0x0 MSTORE PUSH1 0x20 PUSH1 0x0 KECCAK256 ADD PUSH1 0x0 SWAP1 SWAP2 SWAP1 SWAP2 SWAP1 SWAP2 PUSH2 0x100 EXP DUP2 SLOAD DUP2 PUSH20 0xFFFFFFFFFFFFFFFFFFFFFFFFFFFFFFFFFFFFFFFF MUL NOT AND SWAP1 DUP4 PUSH20 0xFFFFFFFFFFFFFFFFFFFFFFFFFFFFFFFFFFFFFFFF AND MUL OR SWAP1 SSTORE POP JUMPDEST POP JUMP JUMPDEST PUSH1 0x0 DUP1 PUSH1 0x0 SWAP1 POP PUSH1 0x0 JUMPDEST PUSH1 0x0 DUP1 SLOAD SWAP1 POP DUP2 LT ISZERO PUSH2 0x161 JUMPI DUP4 PUSH20 0xFFFFFFFFFFFFFFFFFFFFFFFFFFFFFFFFFFFFFFFF AND PUSH1 0x0 DUP3 DUP2 SLOAD DUP2 LT PUSH2 0x103 JUMPI PUSH2 0x102 PUSH2 0x1FB JUMP JUMPDEST JUMPDEST SWAP1 PUSH1 0x0 MSTORE PUSH1 0x20 PUSH1 0x0 KECCAK256 ADD PUSH1 0x0 SWAP1 SLOAD SWAP1 PUSH2 0x100 EXP SWAP1 DIV PUSH20 0xFFFFFFFFFFFFFFFFFFFFFFFFFFFFFFFFFFFFFFFF AND PUSH20 0xFFFFFFFFFFFFFFFFFFFFFFFFFFFFFFFFFFFFFFFF AND SUB PUSH2 0x14E JUMPI PUSH1 0x1 SWAP2 POP JUMPDEST DUP1 DUP1 PUSH2 0x159 SWAP1 PUSH2 0x263 JUMP JUMPDEST SWAP2 POP POP PUSH2 0xCB JUMP JUMPDEST POP DUP1 SWAP2 POP POP SWAP2 SWAP1 POP JUMP JUMPDEST PUSH1 0x0 DUP1 REVERT JUMPDEST PUSH1 0x0 PUSH20 0xFFFFFFFFFFFFFFFFFFFFFFFFFFFFFFFFFFFFFFFF DUP3 AND SWAP1 POP SWAP2 SWAP1 POP JUMP JUMPDEST PUSH1 0x0 PUSH2 0x19B DUP3 PUSH2 0x170 JUMP JUMPDEST SWAP1 POP SWAP2 SWAP1 POP JUMP JUMPDEST PUSH2 0x1AB DUP2 PUSH2 0x190 JUMP JUMPDEST DUP2 EQ PUSH2 0x1B6 JUMPI PUSH1 0x0 DUP1 REVERT JUMPDEST POP JUMP JUMPDEST PUSH1 0x0 DUP2 CALLDATALOAD SWAP1 POP PUSH2 0x1C8 DUP2 PUSH2 0x1A2 JUMP JUMPDEST SWAP3 SWAP2 POP POP JUMP JUMPDEST PUSH1 0x0 PUSH1 0x20 DUP3 DUP5 SUB SLT ISZERO PUSH2 0x1E4 JUMPI PUSH2 0x1E3 PUSH2 0x16B JUMP JUMPDEST JUMPDEST PUSH1 0x0 PUSH2 0x1F2 DUP5 DUP3 DUP6 ADD PUSH2 0x1B9 JUMP JUMPDEST SWAP2 POP POP SWAP3 SWAP2 POP POP JUMP JUMPDEST PUSH32 0x4E487B7100000000000000000000000000000000000000000000000000000000 PUSH1 0x0 MSTORE PUSH1 0x32 PUSH1 0x4 MSTORE PUSH1 0x24 PUSH1 0x0 REVERT JUMPDEST PUSH32 0x4E487B7100000000000000000000000000000000000000000000000000000000 PUSH1 0x0 MSTORE PUSH1 0x11 PUSH1 0x4 MSTORE PUSH1 0x24 PUSH1 0x0 REVERT JUMPDEST PUSH1 0x0 DUP2 SWAP1 POP SWAP2 SWAP1 POP JUMP JUMPDEST PUSH1 0x0 PUSH2 0x26E DUP3 PUSH2 0x259 JUMP JUMPDEST SWAP2 POP PUSH32 0xFFFFFFFFFFFFFFFFFFFFFFFFFFFFFFFFFFFFFFFFFFFFFFFFFFFFFFFFFFFFFFFF DUP3 SUB PUSH2 0x2A0 JUMPI PUSH2 0x29F PUSH2 0x22A JUMP JUMPDEST JUMPDEST PUSH1 0x1 DUP3 ADD SWAP1 POP SWAP2 SWAP1 POP JUMP INVALID LOG2 PUSH5 0x6970667358 0x22 SLT KECCAK256 PUSH22 0xA192904BB3B25F9C71914700DB0B993B9D16D2FD850A PUSH19 0xA3ADBA809C1694F864736F6C63430008130033 "
				},
				"gasEstimates": {
					"creation": {
						"codeDepositCost": "147400",
						"executionCost": "48774",
						"totalCost": "196174"
					},
					"external": {
						"funcionProtegida(address)": "infinite"
					},
					"internal": {
						"estaEnLista(address)": "infinite"
					}
				},
				"methodIdentifiers": {
					"funcionProtegida(address)": "cc39da88"
				}
			},
			"storageLayout": {
				"storage": [
					{
						"astId": 4,
						"contract": "contracts/ListAvvessoArray.sol:ListaAccesoArray",
						"label": "personas",
						"offset": 0,
						"slot": "0",
						"type": "t_array(t_address)dyn_storage"
					}
				],
				"types": {
					"t_address": {
						"encoding": "inplace",
						"label": "address",
						"numberOfBytes": "20"
					},
					"t_array(t_address)dyn_storage": {
						"base": "t_address",
						"encoding": "dynamic_array",
						"label": "address[]",
						"numberOfBytes": "32"
					}
				}
			},
			"userdoc": {
				"kind": "user",
				"methods": {},
				"version": 1
			}
		}
	}
}