{
	"contracts/Structs.sol": {
		"Ejercicio2": {
			"abi": [
				{
					"inputs": [],
					"name": "getPersona",
					"outputs": [
						{
							"components": [
								{
									"internalType": "uint256",
									"name": "edad",
									"type": "uint256"
								},
								{
									"internalType": "address",
									"name": "direccion",
									"type": "address"
								},
								{
									"internalType": "uint256",
									"name": "telefono",
									"type": "uint256"
								}
							],
							"internalType": "struct Ejercicio2.Persona",
							"name": "",
							"type": "tuple"
						}
					],
					"stateMutability": "view",
					"type": "function"
				},
				{
					"inputs": [
						{
							"components": [
								{
									"internalType": "uint256",
									"name": "edad",
									"type": "uint256"
								},
								{
									"internalType": "address",
									"name": "direccion",
									"type": "address"
								},
								{
									"internalType": "uint256",
									"name": "telefono",
									"type": "uint256"
								}
							],
							"internalType": "struct Ejercicio2.Persona",
							"name": "_persona",
							"type": "tuple"
						}
					],
					"name": "setPersona",
					"outputs": [],
					"stateMutability": "nonpayable",
					"type": "function"
				},
				{
					"inputs": [
						{
							"internalType": "uint256",
							"name": "_edad",
							"type": "uint256"
						},
						{
							"internalType": "address",
							"name": "_direccion",
							"type": "address"
						},
						{
							"internalType": "uint256",
							"name": "_telefono",
							"type": "uint256"
						}
					],
					"name": "setPersona2",
					"outputs": [],
					"stateMutability": "nonpayable",
					"type": "function"
				}
			],
			"devdoc": {
				"kind": "dev",
				"methods": {},
				"version": 1
			},
			"evm": {
				"assembly": "    /* \"contracts/Structs.sol\":65:633  contract Ejercicio2 {... */\n  mstore(0x40, 0x80)\n  callvalue\n  dup1\n  iszero\n  tag_1\n  jumpi\n  0x00\n  dup1\n  revert\ntag_1:\n  pop\n  dataSize(sub_0)\n  dup1\n  dataOffset(sub_0)\n  0x00\n  codecopy\n  0x00\n  return\nstop\n\nsub_0: assembly {\n        /* \"contracts/Structs.sol\":65:633  contract Ejercicio2 {... */\n      mstore(0x40, 0x80)\n      callvalue\n      dup1\n      iszero\n      tag_1\n      jumpi\n      0x00\n      dup1\n      revert\n    tag_1:\n      pop\n      jumpi(tag_2, lt(calldatasize, 0x04))\n      shr(0xe0, calldataload(0x00))\n      dup1\n      0x66dd8046\n      eq\n      tag_3\n      jumpi\n      dup1\n      0x7f50a0d5\n      eq\n      tag_4\n      jumpi\n      dup1\n      0x94c94f12\n      eq\n      tag_5\n      jumpi\n    tag_2:\n      0x00\n      dup1\n      revert\n        /* \"contracts/Structs.sol\":328:529  function setPersona2(uint256 _edad, address _direccion, uint256 _telefono) public {... */\n    tag_3:\n      tag_6\n      0x04\n      dup1\n      calldatasize\n      sub\n      dup2\n      add\n      swap1\n      tag_7\n      swap2\n      swap1\n      tag_8\n      jump\t// in\n    tag_7:\n      tag_9\n      jump\t// in\n    tag_6:\n      stop\n        /* \"contracts/Structs.sol\":231:320  function setPersona(Persona memory _persona) public {... */\n    tag_4:\n      tag_10\n      0x04\n      dup1\n      calldatasize\n      sub\n      dup2\n      add\n      swap1\n      tag_11\n      swap2\n      swap1\n      tag_12\n      jump\t// in\n    tag_11:\n      tag_13\n      jump\t// in\n    tag_10:\n      stop\n        /* \"contracts/Structs.sol\":537:628  function getPersona() public view returns(Persona memory) {... */\n    tag_5:\n      tag_14\n      tag_15\n      jump\t// in\n    tag_14:\n      mload(0x40)\n      tag_16\n      swap2\n      swap1\n      tag_17\n      jump\t// in\n    tag_16:\n      mload(0x40)\n      dup1\n      swap2\n      sub\n      swap1\n      return\n        /* \"contracts/Structs.sol\":328:529  function setPersona2(uint256 _edad, address _direccion, uint256 _telefono) public {... */\n    tag_9:\n        /* \"contracts/Structs.sol\":436:441  _edad */\n      dup3\n        /* \"contracts/Structs.sol\":421:428  persona */\n      0x00\n        /* \"contracts/Structs.sol\":421:433  persona.edad */\n      dup1\n      add\n        /* \"contracts/Structs.sol\":421:441  persona.edad = _edad */\n      dup2\n      swap1\n      sstore\n      pop\n        /* \"contracts/Structs.sol\":472:482  _direccion */\n      dup2\n        /* \"contracts/Structs.sol\":452:459  persona */\n      0x00\n        /* \"contracts/Structs.sol\":452:469  persona.direccion */\n      0x01\n      add\n      0x00\n        /* \"contracts/Structs.sol\":452:482  persona.direccion = _direccion */\n      0x0100\n      exp\n      dup2\n      sload\n      dup2\n      0xffffffffffffffffffffffffffffffffffffffff\n      mul\n      not\n      and\n      swap1\n      dup4\n      0xffffffffffffffffffffffffffffffffffffffff\n      and\n      mul\n      or\n      swap1\n      sstore\n      pop\n        /* \"contracts/Structs.sol\":512:521  _telefono */\n      dup1\n        /* \"contracts/Structs.sol\":493:500  persona */\n      0x00\n        /* \"contracts/Structs.sol\":493:509  persona.telefono */\n      0x02\n      add\n        /* \"contracts/Structs.sol\":493:521  persona.telefono = _telefono */\n      dup2\n      swap1\n      sstore\n      pop\n        /* \"contracts/Structs.sol\":328:529  function setPersona2(uint256 _edad, address _direccion, uint256 _telefono) public {... */\n      pop\n      pop\n      pop\n      jump\t// out\n        /* \"contracts/Structs.sol\":231:320  function setPersona(Persona memory _persona) public {... */\n    tag_13:\n        /* \"contracts/Structs.sol\":304:312  _persona */\n      dup1\n        /* \"contracts/Structs.sol\":294:301  persona */\n      0x00\n        /* \"contracts/Structs.sol\":294:312  persona = _persona */\n      dup1\n      dup3\n      add\n      mload\n      dup2\n      0x00\n      add\n      sstore\n      0x20\n      dup3\n      add\n      mload\n      dup2\n      0x01\n      add\n      exp(0x0100, 0x00)\n      dup2\n      sload\n      dup2\n      0xffffffffffffffffffffffffffffffffffffffff\n      mul\n      not\n      and\n      swap1\n      dup4\n      0xffffffffffffffffffffffffffffffffffffffff\n      and\n      mul\n      or\n      swap1\n      sstore\n      pop\n      0x40\n      dup3\n      add\n      mload\n      dup2\n      0x02\n      add\n      sstore\n      swap1\n      pop\n      pop\n        /* \"contracts/Structs.sol\":231:320  function setPersona(Persona memory _persona) public {... */\n      pop\n      jump\t// out\n        /* \"contracts/Structs.sol\":537:628  function getPersona() public view returns(Persona memory) {... */\n    tag_15:\n        /* \"contracts/Structs.sol\":579:593  Persona memory */\n      tag_20\n      tag_21\n      jump\t// in\n    tag_20:\n        /* \"contracts/Structs.sol\":613:620  persona */\n      0x00\n        /* \"contracts/Structs.sol\":606:620  return persona */\n      mload(0x40)\n      dup1\n      0x60\n      add\n      0x40\n      mstore\n      swap1\n      dup2\n      0x00\n      dup3\n      add\n      sload\n      dup2\n      mstore\n      0x20\n      add\n      0x01\n      dup3\n      add\n      0x00\n      swap1\n      sload\n      swap1\n      0x0100\n      exp\n      swap1\n      div\n      0xffffffffffffffffffffffffffffffffffffffff\n      and\n      0xffffffffffffffffffffffffffffffffffffffff\n      and\n      0xffffffffffffffffffffffffffffffffffffffff\n      and\n      dup2\n      mstore\n      0x20\n      add\n      0x02\n      dup3\n      add\n      sload\n      dup2\n      mstore\n      pop\n      pop\n      swap1\n      pop\n        /* \"contracts/Structs.sol\":537:628  function getPersona() public view returns(Persona memory) {... */\n      swap1\n      jump\t// out\n    tag_21:\n      mload(0x40)\n      dup1\n      0x60\n      add\n      0x40\n      mstore\n      dup1\n      0x00\n      dup2\n      mstore\n      0x20\n      add\n      and(0xffffffffffffffffffffffffffffffffffffffff, 0x00)\n      dup2\n      mstore\n      0x20\n      add\n      0x00\n      dup2\n      mstore\n      pop\n      swap1\n      jump\t// out\n        /* \"#utility.yul\":7:82   */\n    tag_23:\n        /* \"#utility.yul\":40:46   */\n      0x00\n        /* \"#utility.yul\":73:75   */\n      0x40\n        /* \"#utility.yul\":67:76   */\n      mload\n        /* \"#utility.yul\":57:76   */\n      swap1\n      pop\n        /* \"#utility.yul\":7:82   */\n      swap1\n      jump\t// out\n        /* \"#utility.yul\":88:205   */\n    tag_24:\n        /* \"#utility.yul\":197:198   */\n      0x00\n        /* \"#utility.yul\":194:195   */\n      dup1\n        /* \"#utility.yul\":187:199   */\n      revert\n        /* \"#utility.yul\":334:411   */\n    tag_26:\n        /* \"#utility.yul\":371:378   */\n      0x00\n        /* \"#utility.yul\":400:405   */\n      dup2\n        /* \"#utility.yul\":389:405   */\n      swap1\n      pop\n        /* \"#utility.yul\":334:411   */\n      swap2\n      swap1\n      pop\n      jump\t// out\n        /* \"#utility.yul\":417:539   */\n    tag_27:\n        /* \"#utility.yul\":490:514   */\n      tag_49\n        /* \"#utility.yul\":508:513   */\n      dup2\n        /* \"#utility.yul\":490:514   */\n      tag_26\n      jump\t// in\n    tag_49:\n        /* \"#utility.yul\":483:488   */\n      dup2\n        /* \"#utility.yul\":480:515   */\n      eq\n        /* \"#utility.yul\":470:533   */\n      tag_50\n      jumpi\n        /* \"#utility.yul\":529:530   */\n      0x00\n        /* \"#utility.yul\":526:527   */\n      dup1\n        /* \"#utility.yul\":519:531   */\n      revert\n        /* \"#utility.yul\":470:533   */\n    tag_50:\n        /* \"#utility.yul\":417:539   */\n      pop\n      jump\t// out\n        /* \"#utility.yul\":545:684   */\n    tag_28:\n        /* \"#utility.yul\":591:596   */\n      0x00\n        /* \"#utility.yul\":629:635   */\n      dup2\n        /* \"#utility.yul\":616:636   */\n      calldataload\n        /* \"#utility.yul\":607:636   */\n      swap1\n      pop\n        /* \"#utility.yul\":645:678   */\n      tag_52\n        /* \"#utility.yul\":672:677   */\n      dup2\n        /* \"#utility.yul\":645:678   */\n      tag_27\n      jump\t// in\n    tag_52:\n        /* \"#utility.yul\":545:684   */\n      swap3\n      swap2\n      pop\n      pop\n      jump\t// out\n        /* \"#utility.yul\":690:816   */\n    tag_29:\n        /* \"#utility.yul\":727:734   */\n      0x00\n        /* \"#utility.yul\":767:809   */\n      0xffffffffffffffffffffffffffffffffffffffff\n        /* \"#utility.yul\":760:765   */\n      dup3\n        /* \"#utility.yul\":756:810   */\n      and\n        /* \"#utility.yul\":745:810   */\n      swap1\n      pop\n        /* \"#utility.yul\":690:816   */\n      swap2\n      swap1\n      pop\n      jump\t// out\n        /* \"#utility.yul\":822:918   */\n    tag_30:\n        /* \"#utility.yul\":859:866   */\n      0x00\n        /* \"#utility.yul\":888:912   */\n      tag_55\n        /* \"#utility.yul\":906:911   */\n      dup3\n        /* \"#utility.yul\":888:912   */\n      tag_29\n      jump\t// in\n    tag_55:\n        /* \"#utility.yul\":877:912   */\n      swap1\n      pop\n        /* \"#utility.yul\":822:918   */\n      swap2\n      swap1\n      pop\n      jump\t// out\n        /* \"#utility.yul\":924:1046   */\n    tag_31:\n        /* \"#utility.yul\":997:1021   */\n      tag_57\n        /* \"#utility.yul\":1015:1020   */\n      dup2\n        /* \"#utility.yul\":997:1021   */\n      tag_30\n      jump\t// in\n    tag_57:\n        /* \"#utility.yul\":990:995   */\n      dup2\n        /* \"#utility.yul\":987:1022   */\n      eq\n        /* \"#utility.yul\":977:1040   */\n      tag_58\n      jumpi\n        /* \"#utility.yul\":1036:1037   */\n      0x00\n        /* \"#utility.yul\":1033:1034   */\n      dup1\n        /* \"#utility.yul\":1026:1038   */\n      revert\n        /* \"#utility.yul\":977:1040   */\n    tag_58:\n        /* \"#utility.yul\":924:1046   */\n      pop\n      jump\t// out\n        /* \"#utility.yul\":1052:1191   */\n    tag_32:\n        /* \"#utility.yul\":1098:1103   */\n      0x00\n        /* \"#utility.yul\":1136:1142   */\n      dup2\n        /* \"#utility.yul\":1123:1143   */\n      calldataload\n        /* \"#utility.yul\":1114:1143   */\n      swap1\n      pop\n        /* \"#utility.yul\":1152:1185   */\n      tag_60\n        /* \"#utility.yul\":1179:1184   */\n      dup2\n        /* \"#utility.yul\":1152:1185   */\n      tag_31\n      jump\t// in\n    tag_60:\n        /* \"#utility.yul\":1052:1191   */\n      swap3\n      swap2\n      pop\n      pop\n      jump\t// out\n        /* \"#utility.yul\":1197:1816   */\n    tag_8:\n        /* \"#utility.yul\":1274:1280   */\n      0x00\n        /* \"#utility.yul\":1282:1288   */\n      dup1\n        /* \"#utility.yul\":1290:1296   */\n      0x00\n        /* \"#utility.yul\":1339:1341   */\n      0x60\n        /* \"#utility.yul\":1327:1336   */\n      dup5\n        /* \"#utility.yul\":1318:1325   */\n      dup7\n        /* \"#utility.yul\":1314:1337   */\n      sub\n        /* \"#utility.yul\":1310:1342   */\n      slt\n        /* \"#utility.yul\":1307:1426   */\n      iszero\n      tag_62\n      jumpi\n        /* \"#utility.yul\":1345:1424   */\n      tag_63\n      tag_24\n      jump\t// in\n    tag_63:\n        /* \"#utility.yul\":1307:1426   */\n    tag_62:\n        /* \"#utility.yul\":1465:1466   */\n      0x00\n        /* \"#utility.yul\":1490:1543   */\n      tag_64\n        /* \"#utility.yul\":1535:1542   */\n      dup7\n        /* \"#utility.yul\":1526:1532   */\n      dup3\n        /* \"#utility.yul\":1515:1524   */\n      dup8\n        /* \"#utility.yul\":1511:1533   */\n      add\n        /* \"#utility.yul\":1490:1543   */\n      tag_28\n      jump\t// in\n    tag_64:\n        /* \"#utility.yul\":1480:1543   */\n      swap4\n      pop\n        /* \"#utility.yul\":1436:1553   */\n      pop\n        /* \"#utility.yul\":1592:1594   */\n      0x20\n        /* \"#utility.yul\":1618:1671   */\n      tag_65\n        /* \"#utility.yul\":1663:1670   */\n      dup7\n        /* \"#utility.yul\":1654:1660   */\n      dup3\n        /* \"#utility.yul\":1643:1652   */\n      dup8\n        /* \"#utility.yul\":1639:1661   */\n      add\n        /* \"#utility.yul\":1618:1671   */\n      tag_32\n      jump\t// in\n    tag_65:\n        /* \"#utility.yul\":1608:1671   */\n      swap3\n      pop\n        /* \"#utility.yul\":1563:1681   */\n      pop\n        /* \"#utility.yul\":1720:1722   */\n      0x40\n        /* \"#utility.yul\":1746:1799   */\n      tag_66\n        /* \"#utility.yul\":1791:1798   */\n      dup7\n        /* \"#utility.yul\":1782:1788   */\n      dup3\n        /* \"#utility.yul\":1771:1780   */\n      dup8\n        /* \"#utility.yul\":1767:1789   */\n      add\n        /* \"#utility.yul\":1746:1799   */\n      tag_28\n      jump\t// in\n    tag_66:\n        /* \"#utility.yul\":1736:1799   */\n      swap2\n      pop\n        /* \"#utility.yul\":1691:1809   */\n      pop\n        /* \"#utility.yul\":1197:1816   */\n      swap3\n      pop\n      swap3\n      pop\n      swap3\n      jump\t// out\n        /* \"#utility.yul\":1822:1939   */\n    tag_33:\n        /* \"#utility.yul\":1931:1932   */\n      0x00\n        /* \"#utility.yul\":1928:1929   */\n      dup1\n        /* \"#utility.yul\":1921:1933   */\n      revert\n        /* \"#utility.yul\":1945:2047   */\n    tag_34:\n        /* \"#utility.yul\":1986:1992   */\n      0x00\n        /* \"#utility.yul\":2037:2039   */\n      0x1f\n        /* \"#utility.yul\":2033:2040   */\n      not\n        /* \"#utility.yul\":2028:2030   */\n      0x1f\n        /* \"#utility.yul\":2021:2026   */\n      dup4\n        /* \"#utility.yul\":2017:2031   */\n      add\n        /* \"#utility.yul\":2013:2041   */\n      and\n        /* \"#utility.yul\":2003:2041   */\n      swap1\n      pop\n        /* \"#utility.yul\":1945:2047   */\n      swap2\n      swap1\n      pop\n      jump\t// out\n        /* \"#utility.yul\":2053:2233   */\n    tag_35:\n        /* \"#utility.yul\":2101:2178   */\n      0x4e487b7100000000000000000000000000000000000000000000000000000000\n        /* \"#utility.yul\":2098:2099   */\n      0x00\n        /* \"#utility.yul\":2091:2179   */\n      mstore\n        /* \"#utility.yul\":2198:2202   */\n      0x41\n        /* \"#utility.yul\":2195:2196   */\n      0x04\n        /* \"#utility.yul\":2188:2203   */\n      mstore\n        /* \"#utility.yul\":2222:2226   */\n      0x24\n        /* \"#utility.yul\":2219:2220   */\n      0x00\n        /* \"#utility.yul\":2212:2227   */\n      revert\n        /* \"#utility.yul\":2239:2520   */\n    tag_36:\n        /* \"#utility.yul\":2322:2349   */\n      tag_71\n        /* \"#utility.yul\":2344:2348   */\n      dup3\n        /* \"#utility.yul\":2322:2349   */\n      tag_34\n      jump\t// in\n    tag_71:\n        /* \"#utility.yul\":2314:2320   */\n      dup2\n        /* \"#utility.yul\":2310:2350   */\n      add\n        /* \"#utility.yul\":2452:2458   */\n      dup2\n        /* \"#utility.yul\":2440:2450   */\n      dup2\n        /* \"#utility.yul\":2437:2459   */\n      lt\n        /* \"#utility.yul\":2416:2434   */\n      0xffffffffffffffff\n        /* \"#utility.yul\":2404:2414   */\n      dup3\n        /* \"#utility.yul\":2401:2435   */\n      gt\n        /* \"#utility.yul\":2398:2460   */\n      or\n        /* \"#utility.yul\":2395:2483   */\n      iszero\n      tag_72\n      jumpi\n        /* \"#utility.yul\":2463:2481   */\n      tag_73\n      tag_35\n      jump\t// in\n    tag_73:\n        /* \"#utility.yul\":2395:2483   */\n    tag_72:\n        /* \"#utility.yul\":2503:2513   */\n      dup1\n        /* \"#utility.yul\":2499:2501   */\n      0x40\n        /* \"#utility.yul\":2492:2514   */\n      mstore\n        /* \"#utility.yul\":2282:2520   */\n      pop\n        /* \"#utility.yul\":2239:2520   */\n      pop\n      pop\n      jump\t// out\n        /* \"#utility.yul\":2526:2655   */\n    tag_37:\n        /* \"#utility.yul\":2560:2566   */\n      0x00\n        /* \"#utility.yul\":2587:2607   */\n      tag_75\n      tag_23\n      jump\t// in\n    tag_75:\n        /* \"#utility.yul\":2577:2607   */\n      swap1\n      pop\n        /* \"#utility.yul\":2616:2649   */\n      tag_76\n        /* \"#utility.yul\":2644:2648   */\n      dup3\n        /* \"#utility.yul\":2636:2642   */\n      dup3\n        /* \"#utility.yul\":2616:2649   */\n      tag_36\n      jump\t// in\n    tag_76:\n        /* \"#utility.yul\":2526:2655   */\n      swap2\n      swap1\n      pop\n      jump\t// out\n        /* \"#utility.yul\":2817:3558   */\n    tag_39:\n        /* \"#utility.yul\":2888:2893   */\n      0x00\n        /* \"#utility.yul\":2932:2936   */\n      0x60\n        /* \"#utility.yul\":2920:2929   */\n      dup3\n        /* \"#utility.yul\":2915:2918   */\n      dup5\n        /* \"#utility.yul\":2911:2930   */\n      sub\n        /* \"#utility.yul\":2907:2937   */\n      slt\n        /* \"#utility.yul\":2904:3021   */\n      iszero\n      tag_79\n      jumpi\n        /* \"#utility.yul\":2940:3019   */\n      tag_80\n      tag_33\n      jump\t// in\n    tag_80:\n        /* \"#utility.yul\":2904:3021   */\n    tag_79:\n        /* \"#utility.yul\":3039:3060   */\n      tag_81\n        /* \"#utility.yul\":3055:3059   */\n      0x60\n        /* \"#utility.yul\":3039:3060   */\n      tag_37\n      jump\t// in\n    tag_81:\n        /* \"#utility.yul\":3030:3060   */\n      swap1\n      pop\n        /* \"#utility.yul\":3119:3120   */\n      0x00\n        /* \"#utility.yul\":3159:3208   */\n      tag_82\n        /* \"#utility.yul\":3204:3207   */\n      dup5\n        /* \"#utility.yul\":3195:3201   */\n      dup3\n        /* \"#utility.yul\":3184:3193   */\n      dup6\n        /* \"#utility.yul\":3180:3202   */\n      add\n        /* \"#utility.yul\":3159:3208   */\n      tag_28\n      jump\t// in\n    tag_82:\n        /* \"#utility.yul\":3152:3156   */\n      0x00\n        /* \"#utility.yul\":3145:3150   */\n      dup4\n        /* \"#utility.yul\":3141:3157   */\n      add\n        /* \"#utility.yul\":3134:3209   */\n      mstore\n        /* \"#utility.yul\":3070:3220   */\n      pop\n        /* \"#utility.yul\":3284:3286   */\n      0x20\n        /* \"#utility.yul\":3325:3374   */\n      tag_83\n        /* \"#utility.yul\":3370:3373   */\n      dup5\n        /* \"#utility.yul\":3361:3367   */\n      dup3\n        /* \"#utility.yul\":3350:3359   */\n      dup6\n        /* \"#utility.yul\":3346:3368   */\n      add\n        /* \"#utility.yul\":3325:3374   */\n      tag_32\n      jump\t// in\n    tag_83:\n        /* \"#utility.yul\":3318:3322   */\n      0x20\n        /* \"#utility.yul\":3311:3316   */\n      dup4\n        /* \"#utility.yul\":3307:3323   */\n      add\n        /* \"#utility.yul\":3300:3375   */\n      mstore\n        /* \"#utility.yul\":3230:3386   */\n      pop\n        /* \"#utility.yul\":3449:3451   */\n      0x40\n        /* \"#utility.yul\":3490:3539   */\n      tag_84\n        /* \"#utility.yul\":3535:3538   */\n      dup5\n        /* \"#utility.yul\":3526:3532   */\n      dup3\n        /* \"#utility.yul\":3515:3524   */\n      dup6\n        /* \"#utility.yul\":3511:3533   */\n      add\n        /* \"#utility.yul\":3490:3539   */\n      tag_28\n      jump\t// in\n    tag_84:\n        /* \"#utility.yul\":3483:3487   */\n      0x40\n        /* \"#utility.yul\":3476:3481   */\n      dup4\n        /* \"#utility.yul\":3472:3488   */\n      add\n        /* \"#utility.yul\":3465:3540   */\n      mstore\n        /* \"#utility.yul\":3396:3551   */\n      pop\n        /* \"#utility.yul\":2817:3558   */\n      swap3\n      swap2\n      pop\n      pop\n      jump\t// out\n        /* \"#utility.yul\":3564:3937   */\n    tag_12:\n        /* \"#utility.yul\":3645:3651   */\n      0x00\n        /* \"#utility.yul\":3694:3696   */\n      0x60\n        /* \"#utility.yul\":3682:3691   */\n      dup3\n        /* \"#utility.yul\":3673:3680   */\n      dup5\n        /* \"#utility.yul\":3669:3692   */\n      sub\n        /* \"#utility.yul\":3665:3697   */\n      slt\n        /* \"#utility.yul\":3662:3781   */\n      iszero\n      tag_86\n      jumpi\n        /* \"#utility.yul\":3700:3779   */\n      tag_87\n      tag_24\n      jump\t// in\n    tag_87:\n        /* \"#utility.yul\":3662:3781   */\n    tag_86:\n        /* \"#utility.yul\":3820:3821   */\n      0x00\n        /* \"#utility.yul\":3845:3920   */\n      tag_88\n        /* \"#utility.yul\":3912:3919   */\n      dup5\n        /* \"#utility.yul\":3903:3909   */\n      dup3\n        /* \"#utility.yul\":3892:3901   */\n      dup6\n        /* \"#utility.yul\":3888:3910   */\n      add\n        /* \"#utility.yul\":3845:3920   */\n      tag_39\n      jump\t// in\n    tag_88:\n        /* \"#utility.yul\":3835:3920   */\n      swap2\n      pop\n        /* \"#utility.yul\":3791:3930   */\n      pop\n        /* \"#utility.yul\":3564:3937   */\n      swap3\n      swap2\n      pop\n      pop\n      jump\t// out\n        /* \"#utility.yul\":3943:4051   */\n    tag_40:\n        /* \"#utility.yul\":4020:4044   */\n      tag_90\n        /* \"#utility.yul\":4038:4043   */\n      dup2\n        /* \"#utility.yul\":4020:4044   */\n      tag_26\n      jump\t// in\n    tag_90:\n        /* \"#utility.yul\":4015:4018   */\n      dup3\n        /* \"#utility.yul\":4008:4045   */\n      mstore\n        /* \"#utility.yul\":3943:4051   */\n      pop\n      pop\n      jump\t// out\n        /* \"#utility.yul\":4057:4165   */\n    tag_41:\n        /* \"#utility.yul\":4134:4158   */\n      tag_92\n        /* \"#utility.yul\":4152:4157   */\n      dup2\n        /* \"#utility.yul\":4134:4158   */\n      tag_30\n      jump\t// in\n    tag_92:\n        /* \"#utility.yul\":4129:4132   */\n      dup3\n        /* \"#utility.yul\":4122:4159   */\n      mstore\n        /* \"#utility.yul\":4057:4165   */\n      pop\n      pop\n      jump\t// out\n        /* \"#utility.yul\":4233:4917   */\n    tag_42:\n        /* \"#utility.yul\":4374:4378   */\n      0x60\n        /* \"#utility.yul\":4369:4372   */\n      dup3\n        /* \"#utility.yul\":4365:4379   */\n      add\n        /* \"#utility.yul\":4461:4465   */\n      0x00\n        /* \"#utility.yul\":4454:4459   */\n      dup3\n        /* \"#utility.yul\":4450:4466   */\n      add\n        /* \"#utility.yul\":4444:4467   */\n      mload\n        /* \"#utility.yul\":4480:4543   */\n      tag_94\n        /* \"#utility.yul\":4537:4541   */\n      0x00\n        /* \"#utility.yul\":4532:4535   */\n      dup6\n        /* \"#utility.yul\":4528:4542   */\n      add\n        /* \"#utility.yul\":4514:4526   */\n      dup3\n        /* \"#utility.yul\":4480:4543   */\n      tag_40\n      jump\t// in\n    tag_94:\n        /* \"#utility.yul\":4389:4553   */\n      pop\n        /* \"#utility.yul\":4640:4644   */\n      0x20\n        /* \"#utility.yul\":4633:4638   */\n      dup3\n        /* \"#utility.yul\":4629:4645   */\n      add\n        /* \"#utility.yul\":4623:4646   */\n      mload\n        /* \"#utility.yul\":4659:4722   */\n      tag_95\n        /* \"#utility.yul\":4716:4720   */\n      0x20\n        /* \"#utility.yul\":4711:4714   */\n      dup6\n        /* \"#utility.yul\":4707:4721   */\n      add\n        /* \"#utility.yul\":4693:4705   */\n      dup3\n        /* \"#utility.yul\":4659:4722   */\n      tag_41\n      jump\t// in\n    tag_95:\n        /* \"#utility.yul\":4563:4732   */\n      pop\n        /* \"#utility.yul\":4818:4822   */\n      0x40\n        /* \"#utility.yul\":4811:4816   */\n      dup3\n        /* \"#utility.yul\":4807:4823   */\n      add\n        /* \"#utility.yul\":4801:4824   */\n      mload\n        /* \"#utility.yul\":4837:4900   */\n      tag_96\n        /* \"#utility.yul\":4894:4898   */\n      0x40\n        /* \"#utility.yul\":4889:4892   */\n      dup6\n        /* \"#utility.yul\":4885:4899   */\n      add\n        /* \"#utility.yul\":4871:4883   */\n      dup3\n        /* \"#utility.yul\":4837:4900   */\n      tag_40\n      jump\t// in\n    tag_96:\n        /* \"#utility.yul\":4742:4910   */\n      pop\n        /* \"#utility.yul\":4343:4917   */\n      pop\n        /* \"#utility.yul\":4233:4917   */\n      pop\n      pop\n      jump\t// out\n        /* \"#utility.yul\":4923:5233   */\n    tag_17:\n        /* \"#utility.yul\":5060:5064   */\n      0x00\n        /* \"#utility.yul\":5098:5100   */\n      0x60\n        /* \"#utility.yul\":5087:5096   */\n      dup3\n        /* \"#utility.yul\":5083:5101   */\n      add\n        /* \"#utility.yul\":5075:5101   */\n      swap1\n      pop\n        /* \"#utility.yul\":5111:5226   */\n      tag_98\n        /* \"#utility.yul\":5223:5224   */\n      0x00\n        /* \"#utility.yul\":5212:5221   */\n      dup4\n        /* \"#utility.yul\":5208:5225   */\n      add\n        /* \"#utility.yul\":5199:5205   */\n      dup5\n        /* \"#utility.yul\":5111:5226   */\n      tag_42\n      jump\t// in\n    tag_98:\n        /* \"#utility.yul\":4923:5233   */\n      swap3\n      swap2\n      pop\n      pop\n      jump\t// out\n\n    auxdata: 0xa2646970667358221220ceb36bea73ca081d421b14509477503ebbac6c72683e949965d5a1e6c6d8ba3a64736f6c63430008130033\n}\n",
				"bytecode": {
					"linkReferences": {},
					"object": "608060405234801561001057600080fd5b506104df806100206000396000f3fe608060405234801561001057600080fd5b50600436106100415760003560e01c806366dd8046146100465780637f50a0d51461006257806394c94f121461007e575b600080fd5b610060600480360381019061005b91906102b9565b61009c565b005b61007c60048036038101906100779190610401565b6100f8565b005b61008661015b565b604051610093919061048e565b60405180910390f35b82600080018190555081600060010160006101000a81548173ffffffffffffffffffffffffffffffffffffffff021916908373ffffffffffffffffffffffffffffffffffffffff16021790555080600060020181905550505050565b80600080820151816000015560208201518160010160006101000a81548173ffffffffffffffffffffffffffffffffffffffff021916908373ffffffffffffffffffffffffffffffffffffffff1602179055506040820151816002015590505050565b6101636101df565b6000604051806060016040529081600082015481526020016001820160009054906101000a900473ffffffffffffffffffffffffffffffffffffffff1673ffffffffffffffffffffffffffffffffffffffff1673ffffffffffffffffffffffffffffffffffffffff168152602001600282015481525050905090565b604051806060016040528060008152602001600073ffffffffffffffffffffffffffffffffffffffff168152602001600081525090565b6000604051905090565b600080fd5b6000819050919050565b61023881610225565b811461024357600080fd5b50565b6000813590506102558161022f565b92915050565b600073ffffffffffffffffffffffffffffffffffffffff82169050919050565b60006102868261025b565b9050919050565b6102968161027b565b81146102a157600080fd5b50565b6000813590506102b38161028d565b92915050565b6000806000606084860312156102d2576102d1610220565b5b60006102e086828701610246565b93505060206102f1868287016102a4565b925050604061030286828701610246565b9150509250925092565b600080fd5b6000601f19601f8301169050919050565b7f4e487b7100000000000000000000000000000000000000000000000000000000600052604160045260246000fd5b61035a82610311565b810181811067ffffffffffffffff8211171561037957610378610322565b5b80604052505050565b600061038c610216565b90506103988282610351565b919050565b6000606082840312156103b3576103b261030c565b5b6103bd6060610382565b905060006103cd84828501610246565b60008301525060206103e1848285016102a4565b60208301525060406103f584828501610246565b60408301525092915050565b60006060828403121561041757610416610220565b5b60006104258482850161039d565b91505092915050565b61043781610225565b82525050565b6104468161027b565b82525050565b606082016000820151610462600085018261042e565b506020820151610475602085018261043d565b506040820151610488604085018261042e565b50505050565b60006060820190506104a3600083018461044c565b9291505056fea2646970667358221220ceb36bea73ca081d421b14509477503ebbac6c72683e949965d5a1e6c6d8ba3a64736f6c63430008130033",
					"opcodes": "PUSH1 0x80 PUSH1 0x40 MSTORE CALLVALUE DUP1 ISZERO PUSH2 0x10 JUMPI PUSH1 0x0 DUP1 REVERT JUMPDEST POP PUSH2 0x4DF DUP1 PUSH2 0x20 PUSH1 0x0 CODECOPY PUSH1 0x0 RETURN INVALID PUSH1 0x80 PUSH1 0x40 MSTORE CALLVALUE DUP1 ISZERO PUSH2 0x10 JUMPI PUSH1 0x0 DUP1 REVERT JUMPDEST POP PUSH1 0x4 CALLDATASIZE LT PUSH2 0x41 JUMPI PUSH1 0x0 CALLDATALOAD PUSH1 0xE0 SHR DUP1 PUSH4 0x66DD8046 EQ PUSH2 0x46 JUMPI DUP1 PUSH4 0x7F50A0D5 EQ PUSH2 0x62 JUMPI DUP1 PUSH4 0x94C94F12 EQ PUSH2 0x7E JUMPI JUMPDEST PUSH1 0x0 DUP1 REVERT JUMPDEST PUSH2 0x60 PUSH1 0x4 DUP1 CALLDATASIZE SUB DUP2 ADD SWAP1 PUSH2 0x5B SWAP2 SWAP1 PUSH2 0x2B9 JUMP JUMPDEST PUSH2 0x9C JUMP JUMPDEST STOP JUMPDEST PUSH2 0x7C PUSH1 0x4 DUP1 CALLDATASIZE SUB DUP2 ADD SWAP1 PUSH2 0x77 SWAP2 SWAP1 PUSH2 0x401 JUMP JUMPDEST PUSH2 0xF8 JUMP JUMPDEST STOP JUMPDEST PUSH2 0x86 PUSH2 0x15B JUMP JUMPDEST PUSH1 0x40 MLOAD PUSH2 0x93 SWAP2 SWAP1 PUSH2 0x48E JUMP JUMPDEST PUSH1 0x40 MLOAD DUP1 SWAP2 SUB SWAP1 RETURN JUMPDEST DUP3 PUSH1 0x0 DUP1 ADD DUP2 SWAP1 SSTORE POP DUP2 PUSH1 0x0 PUSH1 0x1 ADD PUSH1 0x0 PUSH2 0x100 EXP DUP2 SLOAD DUP2 PUSH20 0xFFFFFFFFFFFFFFFFFFFFFFFFFFFFFFFFFFFFFFFF MUL NOT AND SWAP1 DUP4 PUSH20 0xFFFFFFFFFFFFFFFFFFFFFFFFFFFFFFFFFFFFFFFF AND MUL OR SWAP1 SSTORE POP DUP1 PUSH1 0x0 PUSH1 0x2 ADD DUP2 SWAP1 SSTORE POP POP POP POP JUMP JUMPDEST DUP1 PUSH1 0x0 DUP1 DUP3 ADD MLOAD DUP2 PUSH1 0x0 ADD SSTORE PUSH1 0x20 DUP3 ADD MLOAD DUP2 PUSH1 0x1 ADD PUSH1 0x0 PUSH2 0x100 EXP DUP2 SLOAD DUP2 PUSH20 0xFFFFFFFFFFFFFFFFFFFFFFFFFFFFFFFFFFFFFFFF MUL NOT AND SWAP1 DUP4 PUSH20 0xFFFFFFFFFFFFFFFFFFFFFFFFFFFFFFFFFFFFFFFF AND MUL OR SWAP1 SSTORE POP PUSH1 0x40 DUP3 ADD MLOAD DUP2 PUSH1 0x2 ADD SSTORE SWAP1 POP POP POP JUMP JUMPDEST PUSH2 0x163 PUSH2 0x1DF JUMP JUMPDEST PUSH1 0x0 PUSH1 0x40 MLOAD DUP1 PUSH1 0x60 ADD PUSH1 0x40 MSTORE SWAP1 DUP2 PUSH1 0x0 DUP3 ADD SLOAD DUP2 MSTORE PUSH1 0x20 ADD PUSH1 0x1 DUP3 ADD PUSH1 0x0 SWAP1 SLOAD SWAP1 PUSH2 0x100 EXP SWAP1 DIV PUSH20 0xFFFFFFFFFFFFFFFFFFFFFFFFFFFFFFFFFFFFFFFF AND PUSH20 0xFFFFFFFFFFFFFFFFFFFFFFFFFFFFFFFFFFFFFFFF AND PUSH20 0xFFFFFFFFFFFFFFFFFFFFFFFFFFFFFFFFFFFFFFFF AND DUP2 MSTORE PUSH1 0x20 ADD PUSH1 0x2 DUP3 ADD SLOAD DUP2 MSTORE POP POP SWAP1 POP SWAP1 JUMP JUMPDEST PUSH1 0x40 MLOAD DUP1 PUSH1 0x60 ADD PUSH1 0x40 MSTORE DUP1 PUSH1 0x0 DUP2 MSTORE PUSH1 0x20 ADD PUSH1 0x0 PUSH20 0xFFFFFFFFFFFFFFFFFFFFFFFFFFFFFFFFFFFFFFFF AND DUP2 MSTORE PUSH1 0x20 ADD PUSH1 0x0 DUP2 MSTORE POP SWAP1 JUMP JUMPDEST PUSH1 0x0 PUSH1 0x40 MLOAD SWAP1 POP SWAP1 JUMP JUMPDEST PUSH1 0x0 DUP1 REVERT JUMPDEST PUSH1 0x0 DUP2 SWAP1 POP SWAP2 SWAP1 POP JUMP JUMPDEST PUSH2 0x238 DUP2 PUSH2 0x225 JUMP JUMPDEST DUP2 EQ PUSH2 0x243 JUMPI PUSH1 0x0 DUP1 REVERT JUMPDEST POP JUMP JUMPDEST PUSH1 0x0 DUP2 CALLDATALOAD SWAP1 POP PUSH2 0x255 DUP2 PUSH2 0x22F JUMP JUMPDEST SWAP3 SWAP2 POP POP JUMP JUMPDEST PUSH1 0x0 PUSH20 0xFFFFFFFFFFFFFFFFFFFFFFFFFFFFFFFFFFFFFFFF DUP3 AND SWAP1 POP SWAP2 SWAP1 POP JUMP JUMPDEST PUSH1 0x0 PUSH2 0x286 DUP3 PUSH2 0x25B JUMP JUMPDEST SWAP1 POP SWAP2 SWAP1 POP JUMP JUMPDEST PUSH2 0x296 DUP2 PUSH2 0x27B JUMP JUMPDEST DUP2 EQ PUSH2 0x2A1 JUMPI PUSH1 0x0 DUP1 REVERT JUMPDEST POP JUMP JUMPDEST PUSH1 0x0 DUP2 CALLDATALOAD SWAP1 POP PUSH2 0x2B3 DUP2 PUSH2 0x28D JUMP JUMPDEST SWAP3 SWAP2 POP POP JUMP JUMPDEST PUSH1 0x0 DUP1 PUSH1 0x0 PUSH1 0x60 DUP5 DUP7 SUB SLT ISZERO PUSH2 0x2D2 JUMPI PUSH2 0x2D1 PUSH2 0x220 JUMP JUMPDEST JUMPDEST PUSH1 0x0 PUSH2 0x2E0 DUP7 DUP3 DUP8 ADD PUSH2 0x246 JUMP JUMPDEST SWAP4 POP POP PUSH1 0x20 PUSH2 0x2F1 DUP7 DUP3 DUP8 ADD PUSH2 0x2A4 JUMP JUMPDEST SWAP3 POP POP PUSH1 0x40 PUSH2 0x302 DUP7 DUP3 DUP8 ADD PUSH2 0x246 JUMP JUMPDEST SWAP2 POP POP SWAP3 POP SWAP3 POP SWAP3 JUMP JUMPDEST PUSH1 0x0 DUP1 REVERT JUMPDEST PUSH1 0x0 PUSH1 0x1F NOT PUSH1 0x1F DUP4 ADD AND SWAP1 POP SWAP2 SWAP1 POP JUMP JUMPDEST PUSH32 0x4E487B7100000000000000000000000000000000000000000000000000000000 PUSH1 0x0 MSTORE PUSH1 0x41 PUSH1 0x4 MSTORE PUSH1 0x24 PUSH1 0x0 REVERT JUMPDEST PUSH2 0x35A DUP3 PUSH2 0x311 JUMP JUMPDEST DUP2 ADD DUP2 DUP2 LT PUSH8 0xFFFFFFFFFFFFFFFF DUP3 GT OR ISZERO PUSH2 0x379 JUMPI PUSH2 0x378 PUSH2 0x322 JUMP JUMPDEST JUMPDEST DUP1 PUSH1 0x40 MSTORE POP POP POP JUMP JUMPDEST PUSH1 0x0 PUSH2 0x38C PUSH2 0x216 JUMP JUMPDEST SWAP1 POP PUSH2 0x398 DUP3 DUP3 PUSH2 0x351 JUMP JUMPDEST SWAP2 SWAP1 POP JUMP JUMPDEST PUSH1 0x0 PUSH1 0x60 DUP3 DUP5 SUB SLT ISZERO PUSH2 0x3B3 JUMPI PUSH2 0x3B2 PUSH2 0x30C JUMP JUMPDEST JUMPDEST PUSH2 0x3BD PUSH1 0x60 PUSH2 0x382 JUMP JUMPDEST SWAP1 POP PUSH1 0x0 PUSH2 0x3CD DUP5 DUP3 DUP6 ADD PUSH2 0x246 JUMP JUMPDEST PUSH1 0x0 DUP4 ADD MSTORE POP PUSH1 0x20 PUSH2 0x3E1 DUP5 DUP3 DUP6 ADD PUSH2 0x2A4 JUMP JUMPDEST PUSH1 0x20 DUP4 ADD MSTORE POP PUSH1 0x40 PUSH2 0x3F5 DUP5 DUP3 DUP6 ADD PUSH2 0x246 JUMP JUMPDEST PUSH1 0x40 DUP4 ADD MSTORE POP SWAP3 SWAP2 POP POP JUMP JUMPDEST PUSH1 0x0 PUSH1 0x60 DUP3 DUP5 SUB SLT ISZERO PUSH2 0x417 JUMPI PUSH2 0x416 PUSH2 0x220 JUMP JUMPDEST JUMPDEST PUSH1 0x0 PUSH2 0x425 DUP5 DUP3 DUP6 ADD PUSH2 0x39D JUMP JUMPDEST SWAP2 POP POP SWAP3 SWAP2 POP POP JUMP JUMPDEST PUSH2 0x437 DUP2 PUSH2 0x225 JUMP JUMPDEST DUP3 MSTORE POP POP JUMP JUMPDEST PUSH2 0x446 DUP2 PUSH2 0x27B JUMP JUMPDEST DUP3 MSTORE POP POP JUMP JUMPDEST PUSH1 0x60 DUP3 ADD PUSH1 0x0 DUP3 ADD MLOAD PUSH2 0x462 PUSH1 0x0 DUP6 ADD DUP3 PUSH2 0x42E JUMP JUMPDEST POP PUSH1 0x20 DUP3 ADD MLOAD PUSH2 0x475 PUSH1 0x20 DUP6 ADD DUP3 PUSH2 0x43D JUMP JUMPDEST POP PUSH1 0x40 DUP3 ADD MLOAD PUSH2 0x488 PUSH1 0x40 DUP6 ADD DUP3 PUSH2 0x42E JUMP JUMPDEST POP POP POP POP JUMP JUMPDEST PUSH1 0x0 PUSH1 0x60 DUP3 ADD SWAP1 POP PUSH2 0x4A3 PUSH1 0x0 DUP4 ADD DUP5 PUSH2 0x44C JUMP JUMPDEST SWAP3 SWAP2 POP POP JUMP INVALID LOG2 PUSH5 0x6970667358 0x22 SLT KECCAK256 0xCE 0xB3 PUSH12 0xEA73CA081D421B1450947750 RETURNDATACOPY 0xBB 0xAC PUSH13 0x72683E949965D5A1E6C6D8BA3A PUSH5 0x736F6C6343 STOP ADDMOD SGT STOP CALLER "
				},
				"gasEstimates": {
					"creation": {
						"codeDepositCost": "249400",
						"executionCost": "287",
						"totalCost": "249687"
					},
					"external": {
						"getPersona()": "infinite",
						"setPersona((uint256,address,uint256))": "infinite",
						"setPersona2(uint256,address,uint256)": "infinite"
					}
				},
				"methodIdentifiers": {
					"getPersona()": "94c94f12",
					"setPersona((uint256,address,uint256))": "7f50a0d5",
					"setPersona2(uint256,address,uint256)": "66dd8046"
				}
			},
			"storageLayout": {
				"storage": [
					{
						"astId": 11,
						"contract": "contracts/Structs.sol:Ejercicio2",
						"label": "persona",
						"offset": 0,
						"slot": "0",
						"type": "t_struct(Persona)8_storage"
					}
				],
				"types": {
					"t_address": {
						"encoding": "inplace",
						"label": "address",
						"numberOfBytes": "20"
					},
					"t_struct(Persona)8_storage": {
						"encoding": "inplace",
						"label": "struct Ejercicio2.Persona",
						"members": [
							{
								"astId": 3,
								"contract": "contracts/Structs.sol:Ejercicio2",
								"label": "edad",
								"offset": 0,
								"slot": "0",
								"type": "t_uint256"
							},
							{
								"astId": 5,
								"contract": "contracts/Structs.sol:Ejercicio2",
								"label": "direccion",
								"offset": 0,
								"slot": "1",
								"type": "t_address"
							},
							{
								"astId": 7,
								"contract": "contracts/Structs.sol:Ejercicio2",
								"label": "telefono",
								"offset": 0,
								"slot": "2",
								"type": "t_uint256"
							}
						],
						"numberOfBytes": "96"
					},
					"t_uint256": {
						"encoding": "inplace",
						"label": "uint256",
						"numberOfBytes": "32"
					}
				}
			},
			"userdoc": {
				"kind": "user",
				"methods": {},
				"version": 1
			}
		}
	}
}