{
	"data": {
		"bytecode": {
			"linkReferences": {},
			"object": "6080604052600060025534801561001557600080fd5b50610d08806100256000396000f3fe608060405234801561001057600080fd5b50600436106100625760003560e01c806327e235e3146100675780633470c7141461009757806345ce890f146100b35780639cc6ab7a146100d1578063a8d5fd65146100ed578063ded39a5d1461010b575b600080fd5b610081600480360381019061007c9190610624565b61013d565b60405161008e919061066a565b60405180910390f35b6100b160048036038101906100ac9190610716565b610155565b005b6100bb6102ee565b6040516100c8919061066a565b60405180910390f35b6100eb60048036038101906100e69190610716565b6102f4565b005b6100f561046b565b604051610102919061066a565b60405180910390f35b61012560048036038101906101209190610776565b6104ca565b6040516101349392919061084e565b60405180910390f35b60036020528060005260406000206000915090505481565b82600360003373ffffffffffffffffffffffffffffffffffffffff1673ffffffffffffffffffffffffffffffffffffffff16815260200190815260200160002054106102e957826000808282546101ac91906108bb565b9250508190555082600360003373ffffffffffffffffffffffffffffffffffffffff1673ffffffffffffffffffffffffffffffffffffffff168152602001908152602001600020600082825461020291906108bb565b92505081905550610211610599565b82828080601f016020809104026020016040519081016040528093929190818152602001838380828437600081840152601f19601f820116905080830192505050505050508160000181905250838160200181815250506001816040019015159081151581525050600181908060018154018082558091505060019003906000526020600020906003020160009091909190915060008201518160000190816102ba9190610b2a565b506020820151816001015560408201518160020160006101000a81548160ff0219169083151502179055505050505b505050565b60005481565b826000808282546103059190610bfc565b9250508190555082600360003373ffffffffffffffffffffffffffffffffffffffff1673ffffffffffffffffffffffffffffffffffffffff168152602001908152602001600020600082825461035b9190610bfc565b9250508190555060028361036f9190610c30565b600260008282546103809190610bfc565b9250508190555061038f610599565b82828080601f016020809104026020016040519081016040528093929190818152602001838380828437600081840152601f19601f820116905080830192505050505050508160000181905250838160200181815250506000816040019015159081151581525050600181908060018154018082558091505060019003906000526020600020906003020160009091909190915060008201518160000190816104389190610b2a565b506020820151816001015560408201518160020160006101000a81548160ff021916908315150217905550505050505050565b600080546064600360003373ffffffffffffffffffffffffffffffffffffffff1673ffffffffffffffffffffffffffffffffffffffff168152602001908152602001600020546104bb9190610c30565b6104c59190610ca1565b905090565b600181815481106104da57600080fd5b90600052602060002090600302016000915090508060000180546104fd9061094d565b80601f01602080910402602001604051908101604052809291908181526020018280546105299061094d565b80156105765780601f1061054b57610100808354040283529160200191610576565b820191906000526020600020905b81548152906001019060200180831161055957829003601f168201915b5050505050908060010154908060020160009054906101000a900460ff16905083565b604051806060016040528060608152602001600081526020016000151581525090565b600080fd5b600080fd5b600073ffffffffffffffffffffffffffffffffffffffff82169050919050565b60006105f1826105c6565b9050919050565b610601816105e6565b811461060c57600080fd5b50565b60008135905061061e816105f8565b92915050565b60006020828403121561063a576106396105bc565b5b60006106488482850161060f565b91505092915050565b6000819050919050565b61066481610651565b82525050565b600060208201905061067f600083018461065b565b92915050565b61068e81610651565b811461069957600080fd5b50565b6000813590506106ab81610685565b92915050565b600080fd5b600080fd5b600080fd5b60008083601f8401126106d6576106d56106b1565b5b8235905067ffffffffffffffff8111156106f3576106f26106b6565b5b60208301915083600182028301111561070f5761070e6106bb565b5b9250929050565b60008060006040848603121561072f5761072e6105bc565b5b600061073d8682870161069c565b935050602084013567ffffffffffffffff81111561075e5761075d6105c1565b5b61076a868287016106c0565b92509250509250925092565b60006020828403121561078c5761078b6105bc565b5b600061079a8482850161069c565b91505092915050565b600081519050919050565b600082825260208201905092915050565b60005b838110156107dd5780820151818401526020810190506107c2565b60008484015250505050565b6000601f19601f8301169050919050565b6000610805826107a3565b61080f81856107ae565b935061081f8185602086016107bf565b610828816107e9565b840191505092915050565b60008115159050919050565b61084881610833565b82525050565b6000606082019050818103600083015261086881866107fa565b9050610877602083018561065b565b610884604083018461083f565b949350505050565b7f4e487b7100000000000000000000000000000000000000000000000000000000600052601160045260246000fd5b60006108c682610651565b91506108d183610651565b92508282039050818111156108e9576108e861088c565b5b92915050565b7f4e487b7100000000000000000000000000000000000000000000000000000000600052604160045260246000fd5b7f4e487b7100000000000000000000000000000000000000000000000000000000600052602260045260246000fd5b6000600282049050600182168061096557607f821691505b6020821081036109785761097761091e565b5b50919050565b60008190508160005260206000209050919050565b60006020601f8301049050919050565b600082821b905092915050565b6000600883026109e07fffffffffffffffffffffffffffffffffffffffffffffffffffffffffffffffff826109a3565b6109ea86836109a3565b95508019841693508086168417925050509392505050565b6000819050919050565b6000610a27610a22610a1d84610651565b610a02565b610651565b9050919050565b6000819050919050565b610a4183610a0c565b610a55610a4d82610a2e565b8484546109b0565b825550505050565b600090565b610a6a610a5d565b610a75818484610a38565b505050565b5b81811015610a9957610a8e600082610a62565b600181019050610a7b565b5050565b601f821115610ade57610aaf8161097e565b610ab884610993565b81016020851015610ac7578190505b610adb610ad385610993565b830182610a7a565b50505b505050565b600082821c905092915050565b6000610b0160001984600802610ae3565b1980831691505092915050565b6000610b1a8383610af0565b9150826002028217905092915050565b610b33826107a3565b67ffffffffffffffff811115610b4c57610b4b6108ef565b5b610b56825461094d565b610b61828285610a9d565b600060209050601f831160018114610b945760008415610b82578287015190505b610b8c8582610b0e565b865550610bf4565b601f198416610ba28661097e565b60005b82811015610bca57848901518255600182019150602085019450602081019050610ba5565b86831015610be75784890151610be3601f891682610af0565b8355505b6001600288020188555050505b505050505050565b6000610c0782610651565b9150610c1283610651565b9250828201905080821115610c2a57610c2961088c565b5b92915050565b6000610c3b82610651565b9150610c4683610651565b9250828202610c5481610651565b91508282048414831517610c6b57610c6a61088c565b5b5092915050565b7f4e487b7100000000000000000000000000000000000000000000000000000000600052601260045260246000fd5b6000610cac82610651565b9150610cb783610651565b925082610cc757610cc6610c72565b5b82820490509291505056fea2646970667358221220ee1389e6f3e3f36582f9b66a4736d43b9e201ae8c5c4c2327ce8612d9951ad6264736f6c63430008130033",
			"opcodes": "PUSH1 0x80 PUSH1 0x40 MSTORE PUSH1 0x0 PUSH1 0x2 SSTORE CALLVALUE DUP1 ISZERO PUSH2 0x15 JUMPI PUSH1 0x0 DUP1 REVERT JUMPDEST POP PUSH2 0xD08 DUP1 PUSH2 0x25 PUSH1 0x0 CODECOPY PUSH1 0x0 RETURN INVALID PUSH1 0x80 PUSH1 0x40 MSTORE CALLVALUE DUP1 ISZERO PUSH2 0x10 JUMPI PUSH1 0x0 DUP1 REVERT JUMPDEST POP PUSH1 0x4 CALLDATASIZE LT PUSH2 0x62 JUMPI PUSH1 0x0 CALLDATALOAD PUSH1 0xE0 SHR DUP1 PUSH4 0x27E235E3 EQ PUSH2 0x67 JUMPI DUP1 PUSH4 0x3470C714 EQ PUSH2 0x97 JUMPI DUP1 PUSH4 0x45CE890F EQ PUSH2 0xB3 JUMPI DUP1 PUSH4 0x9CC6AB7A EQ PUSH2 0xD1 JUMPI DUP1 PUSH4 0xA8D5FD65 EQ PUSH2 0xED JUMPI DUP1 PUSH4 0xDED39A5D EQ PUSH2 0x10B JUMPI JUMPDEST PUSH1 0x0 DUP1 REVERT JUMPDEST PUSH2 0x81 PUSH1 0x4 DUP1 CALLDATASIZE SUB DUP2 ADD SWAP1 PUSH2 0x7C SWAP2 SWAP1 PUSH2 0x624 JUMP JUMPDEST PUSH2 0x13D JUMP JUMPDEST PUSH1 0x40 MLOAD PUSH2 0x8E SWAP2 SWAP1 PUSH2 0x66A JUMP JUMPDEST PUSH1 0x40 MLOAD DUP1 SWAP2 SUB SWAP1 RETURN JUMPDEST PUSH2 0xB1 PUSH1 0x4 DUP1 CALLDATASIZE SUB DUP2 ADD SWAP1 PUSH2 0xAC SWAP2 SWAP1 PUSH2 0x716 JUMP JUMPDEST PUSH2 0x155 JUMP JUMPDEST STOP JUMPDEST PUSH2 0xBB PUSH2 0x2EE JUMP JUMPDEST PUSH1 0x40 MLOAD PUSH2 0xC8 SWAP2 SWAP1 PUSH2 0x66A JUMP JUMPDEST PUSH1 0x40 MLOAD DUP1 SWAP2 SUB SWAP1 RETURN JUMPDEST PUSH2 0xEB PUSH1 0x4 DUP1 CALLDATASIZE SUB DUP2 ADD SWAP1 PUSH2 0xE6 SWAP2 SWAP1 PUSH2 0x716 JUMP JUMPDEST PUSH2 0x2F4 JUMP JUMPDEST STOP JUMPDEST PUSH2 0xF5 PUSH2 0x46B JUMP JUMPDEST PUSH1 0x40 MLOAD PUSH2 0x102 SWAP2 SWAP1 PUSH2 0x66A JUMP JUMPDEST PUSH1 0x40 MLOAD DUP1 SWAP2 SUB SWAP1 RETURN JUMPDEST PUSH2 0x125 PUSH1 0x4 DUP1 CALLDATASIZE SUB DUP2 ADD SWAP1 PUSH2 0x120 SWAP2 SWAP1 PUSH2 0x776 JUMP JUMPDEST PUSH2 0x4CA JUMP JUMPDEST PUSH1 0x40 MLOAD PUSH2 0x134 SWAP4 SWAP3 SWAP2 SWAP1 PUSH2 0x84E JUMP JUMPDEST PUSH1 0x40 MLOAD DUP1 SWAP2 SUB SWAP1 RETURN JUMPDEST PUSH1 0x3 PUSH1 0x20 MSTORE DUP1 PUSH1 0x0 MSTORE PUSH1 0x40 PUSH1 0x0 KECCAK256 PUSH1 0x0 SWAP2 POP SWAP1 POP SLOAD DUP2 JUMP JUMPDEST DUP3 PUSH1 0x3 PUSH1 0x0 CALLER PUSH20 0xFFFFFFFFFFFFFFFFFFFFFFFFFFFFFFFFFFFFFFFF AND PUSH20 0xFFFFFFFFFFFFFFFFFFFFFFFFFFFFFFFFFFFFFFFF AND DUP2 MSTORE PUSH1 0x20 ADD SWAP1 DUP2 MSTORE PUSH1 0x20 ADD PUSH1 0x0 KECCAK256 SLOAD LT PUSH2 0x2E9 JUMPI DUP3 PUSH1 0x0 DUP1 DUP3 DUP3 SLOAD PUSH2 0x1AC SWAP2 SWAP1 PUSH2 0x8BB JUMP JUMPDEST SWAP3 POP POP DUP2 SWAP1 SSTORE POP DUP3 PUSH1 0x3 PUSH1 0x0 CALLER PUSH20 0xFFFFFFFFFFFFFFFFFFFFFFFFFFFFFFFFFFFFFFFF AND PUSH20 0xFFFFFFFFFFFFFFFFFFFFFFFFFFFFFFFFFFFFFFFF AND DUP2 MSTORE PUSH1 0x20 ADD SWAP1 DUP2 MSTORE PUSH1 0x20 ADD PUSH1 0x0 KECCAK256 PUSH1 0x0 DUP3 DUP3 SLOAD PUSH2 0x202 SWAP2 SWAP1 PUSH2 0x8BB JUMP JUMPDEST SWAP3 POP POP DUP2 SWAP1 SSTORE POP PUSH2 0x211 PUSH2 0x599 JUMP JUMPDEST DUP3 DUP3 DUP1 DUP1 PUSH1 0x1F ADD PUSH1 0x20 DUP1 SWAP2 DIV MUL PUSH1 0x20 ADD PUSH1 0x40 MLOAD SWAP1 DUP2 ADD PUSH1 0x40 MSTORE DUP1 SWAP4 SWAP3 SWAP2 SWAP1 DUP2 DUP2 MSTORE PUSH1 0x20 ADD DUP4 DUP4 DUP1 DUP3 DUP5 CALLDATACOPY PUSH1 0x0 DUP2 DUP5 ADD MSTORE PUSH1 0x1F NOT PUSH1 0x1F DUP3 ADD AND SWAP1 POP DUP1 DUP4 ADD SWAP3 POP POP POP POP POP POP POP DUP2 PUSH1 0x0 ADD DUP2 SWAP1 MSTORE POP DUP4 DUP2 PUSH1 0x20 ADD DUP2 DUP2 MSTORE POP POP PUSH1 0x1 DUP2 PUSH1 0x40 ADD SWAP1 ISZERO ISZERO SWAP1 DUP2 ISZERO ISZERO DUP2 MSTORE POP POP PUSH1 0x1 DUP2 SWAP1 DUP1 PUSH1 0x1 DUP2 SLOAD ADD DUP1 DUP3 SSTORE DUP1 SWAP2 POP POP PUSH1 0x1 SWAP1 SUB SWAP1 PUSH1 0x0 MSTORE PUSH1 0x20 PUSH1 0x0 KECCAK256 SWAP1 PUSH1 0x3 MUL ADD PUSH1 0x0 SWAP1 SWAP2 SWAP1 SWAP2 SWAP1 SWAP2 POP PUSH1 0x0 DUP3 ADD MLOAD DUP2 PUSH1 0x0 ADD SWAP1 DUP2 PUSH2 0x2BA SWAP2 SWAP1 PUSH2 0xB2A JUMP JUMPDEST POP PUSH1 0x20 DUP3 ADD MLOAD DUP2 PUSH1 0x1 ADD SSTORE PUSH1 0x40 DUP3 ADD MLOAD DUP2 PUSH1 0x2 ADD PUSH1 0x0 PUSH2 0x100 EXP DUP2 SLOAD DUP2 PUSH1 0xFF MUL NOT AND SWAP1 DUP4 ISZERO ISZERO MUL OR SWAP1 SSTORE POP POP POP POP JUMPDEST POP POP POP JUMP JUMPDEST PUSH1 0x0 SLOAD DUP2 JUMP JUMPDEST DUP3 PUSH1 0x0 DUP1 DUP3 DUP3 SLOAD PUSH2 0x305 SWAP2 SWAP1 PUSH2 0xBFC JUMP JUMPDEST SWAP3 POP POP DUP2 SWAP1 SSTORE POP DUP3 PUSH1 0x3 PUSH1 0x0 CALLER PUSH20 0xFFFFFFFFFFFFFFFFFFFFFFFFFFFFFFFFFFFFFFFF AND PUSH20 0xFFFFFFFFFFFFFFFFFFFFFFFFFFFFFFFFFFFFFFFF AND DUP2 MSTORE PUSH1 0x20 ADD SWAP1 DUP2 MSTORE PUSH1 0x20 ADD PUSH1 0x0 KECCAK256 PUSH1 0x0 DUP3 DUP3 SLOAD PUSH2 0x35B SWAP2 SWAP1 PUSH2 0xBFC JUMP JUMPDEST SWAP3 POP POP DUP2 SWAP1 SSTORE POP PUSH1 0x2 DUP4 PUSH2 0x36F SWAP2 SWAP1 PUSH2 0xC30 JUMP JUMPDEST PUSH1 0x2 PUSH1 0x0 DUP3 DUP3 SLOAD PUSH2 0x380 SWAP2 SWAP1 PUSH2 0xBFC JUMP JUMPDEST SWAP3 POP POP DUP2 SWAP1 SSTORE POP PUSH2 0x38F PUSH2 0x599 JUMP JUMPDEST DUP3 DUP3 DUP1 DUP1 PUSH1 0x1F ADD PUSH1 0x20 DUP1 SWAP2 DIV MUL PUSH1 0x20 ADD PUSH1 0x40 MLOAD SWAP1 DUP2 ADD PUSH1 0x40 MSTORE DUP1 SWAP4 SWAP3 SWAP2 SWAP1 DUP2 DUP2 MSTORE PUSH1 0x20 ADD DUP4 DUP4 DUP1 DUP3 DUP5 CALLDATACOPY PUSH1 0x0 DUP2 DUP5 ADD MSTORE PUSH1 0x1F NOT PUSH1 0x1F DUP3 ADD AND SWAP1 POP DUP1 DUP4 ADD SWAP3 POP POP POP POP POP POP POP DUP2 PUSH1 0x0 ADD DUP2 SWAP1 MSTORE POP DUP4 DUP2 PUSH1 0x20 ADD DUP2 DUP2 MSTORE POP POP PUSH1 0x0 DUP2 PUSH1 0x40 ADD SWAP1 ISZERO ISZERO SWAP1 DUP2 ISZERO ISZERO DUP2 MSTORE POP POP PUSH1 0x1 DUP2 SWAP1 DUP1 PUSH1 0x1 DUP2 SLOAD ADD DUP1 DUP3 SSTORE DUP1 SWAP2 POP POP PUSH1 0x1 SWAP1 SUB SWAP1 PUSH1 0x0 MSTORE PUSH1 0x20 PUSH1 0x0 KECCAK256 SWAP1 PUSH1 0x3 MUL ADD PUSH1 0x0 SWAP1 SWAP2 SWAP1 SWAP2 SWAP1 SWAP2 POP PUSH1 0x0 DUP3 ADD MLOAD DUP2 PUSH1 0x0 ADD SWAP1 DUP2 PUSH2 0x438 SWAP2 SWAP1 PUSH2 0xB2A JUMP JUMPDEST POP PUSH1 0x20 DUP3 ADD MLOAD DUP2 PUSH1 0x1 ADD SSTORE PUSH1 0x40 DUP3 ADD MLOAD DUP2 PUSH1 0x2 ADD PUSH1 0x0 PUSH2 0x100 EXP DUP2 SLOAD DUP2 PUSH1 0xFF MUL NOT AND SWAP1 DUP4 ISZERO ISZERO MUL OR SWAP1 SSTORE POP POP POP POP POP POP POP JUMP JUMPDEST PUSH1 0x0 DUP1 SLOAD PUSH1 0x64 PUSH1 0x3 PUSH1 0x0 CALLER PUSH20 0xFFFFFFFFFFFFFFFFFFFFFFFFFFFFFFFFFFFFFFFF AND PUSH20 0xFFFFFFFFFFFFFFFFFFFFFFFFFFFFFFFFFFFFFFFF AND DUP2 MSTORE PUSH1 0x20 ADD SWAP1 DUP2 MSTORE PUSH1 0x20 ADD PUSH1 0x0 KECCAK256 SLOAD PUSH2 0x4BB SWAP2 SWAP1 PUSH2 0xC30 JUMP JUMPDEST PUSH2 0x4C5 SWAP2 SWAP1 PUSH2 0xCA1 JUMP JUMPDEST SWAP1 POP SWAP1 JUMP JUMPDEST PUSH1 0x1 DUP2 DUP2 SLOAD DUP2 LT PUSH2 0x4DA JUMPI PUSH1 0x0 DUP1 REVERT JUMPDEST SWAP1 PUSH1 0x0 MSTORE PUSH1 0x20 PUSH1 0x0 KECCAK256 SWAP1 PUSH1 0x3 MUL ADD PUSH1 0x0 SWAP2 POP SWAP1 POP DUP1 PUSH1 0x0 ADD DUP1 SLOAD PUSH2 0x4FD SWAP1 PUSH2 0x94D JUMP JUMPDEST DUP1 PUSH1 0x1F ADD PUSH1 0x20 DUP1 SWAP2 DIV MUL PUSH1 0x20 ADD PUSH1 0x40 MLOAD SWAP1 DUP2 ADD PUSH1 0x40 MSTORE DUP1 SWAP3 SWAP2 SWAP1 DUP2 DUP2 MSTORE PUSH1 0x20 ADD DUP3 DUP1 SLOAD PUSH2 0x529 SWAP1 PUSH2 0x94D JUMP JUMPDEST DUP1 ISZERO PUSH2 0x576 JUMPI DUP1 PUSH1 0x1F LT PUSH2 0x54B JUMPI PUSH2 0x100 DUP1 DUP4 SLOAD DIV MUL DUP4 MSTORE SWAP2 PUSH1 0x20 ADD SWAP2 PUSH2 0x576 JUMP JUMPDEST DUP3 ADD SWAP2 SWAP1 PUSH1 0x0 MSTORE PUSH1 0x20 PUSH1 0x0 KECCAK256 SWAP1 JUMPDEST DUP2 SLOAD DUP2 MSTORE SWAP1 PUSH1 0x1 ADD SWAP1 PUSH1 0x20 ADD DUP1 DUP4 GT PUSH2 0x559 JUMPI DUP3 SWAP1 SUB PUSH1 0x1F AND DUP3 ADD SWAP2 JUMPDEST POP POP POP POP POP SWAP1 DUP1 PUSH1 0x1 ADD SLOAD SWAP1 DUP1 PUSH1 0x2 ADD PUSH1 0x0 SWAP1 SLOAD SWAP1 PUSH2 0x100 EXP SWAP1 DIV PUSH1 0xFF AND SWAP1 POP DUP4 JUMP JUMPDEST PUSH1 0x40 MLOAD DUP1 PUSH1 0x60 ADD PUSH1 0x40 MSTORE DUP1 PUSH1 0x60 DUP2 MSTORE PUSH1 0x20 ADD PUSH1 0x0 DUP2 MSTORE PUSH1 0x20 ADD PUSH1 0x0 ISZERO ISZERO DUP2 MSTORE POP SWAP1 JUMP JUMPDEST PUSH1 0x0 DUP1 REVERT JUMPDEST PUSH1 0x0 DUP1 REVERT JUMPDEST PUSH1 0x0 PUSH20 0xFFFFFFFFFFFFFFFFFFFFFFFFFFFFFFFFFFFFFFFF DUP3 AND SWAP1 POP SWAP2 SWAP1 POP JUMP JUMPDEST PUSH1 0x0 PUSH2 0x5F1 DUP3 PUSH2 0x5C6 JUMP JUMPDEST SWAP1 POP SWAP2 SWAP1 POP JUMP JUMPDEST PUSH2 0x601 DUP2 PUSH2 0x5E6 JUMP JUMPDEST DUP2 EQ PUSH2 0x60C JUMPI PUSH1 0x0 DUP1 REVERT JUMPDEST POP JUMP JUMPDEST PUSH1 0x0 DUP2 CALLDATALOAD SWAP1 POP PUSH2 0x61E DUP2 PUSH2 0x5F8 JUMP JUMPDEST SWAP3 SWAP2 POP POP JUMP JUMPDEST PUSH1 0x0 PUSH1 0x20 DUP3 DUP5 SUB SLT ISZERO PUSH2 0x63A JUMPI PUSH2 0x639 PUSH2 0x5BC JUMP JUMPDEST JUMPDEST PUSH1 0x0 PUSH2 0x648 DUP5 DUP3 DUP6 ADD PUSH2 0x60F JUMP JUMPDEST SWAP2 POP POP SWAP3 SWAP2 POP POP JUMP JUMPDEST PUSH1 0x0 DUP2 SWAP1 POP SWAP2 SWAP1 POP JUMP JUMPDEST PUSH2 0x664 DUP2 PUSH2 0x651 JUMP JUMPDEST DUP3 MSTORE POP POP JUMP JUMPDEST PUSH1 0x0 PUSH1 0x20 DUP3 ADD SWAP1 POP PUSH2 0x67F PUSH1 0x0 DUP4 ADD DUP5 PUSH2 0x65B JUMP JUMPDEST SWAP3 SWAP2 POP POP JUMP JUMPDEST PUSH2 0x68E DUP2 PUSH2 0x651 JUMP JUMPDEST DUP2 EQ PUSH2 0x699 JUMPI PUSH1 0x0 DUP1 REVERT JUMPDEST POP JUMP JUMPDEST PUSH1 0x0 DUP2 CALLDATALOAD SWAP1 POP PUSH2 0x6AB DUP2 PUSH2 0x685 JUMP JUMPDEST SWAP3 SWAP2 POP POP JUMP JUMPDEST PUSH1 0x0 DUP1 REVERT JUMPDEST PUSH1 0x0 DUP1 REVERT JUMPDEST PUSH1 0x0 DUP1 REVERT JUMPDEST PUSH1 0x0 DUP1 DUP4 PUSH1 0x1F DUP5 ADD SLT PUSH2 0x6D6 JUMPI PUSH2 0x6D5 PUSH2 0x6B1 JUMP JUMPDEST JUMPDEST DUP3 CALLDATALOAD SWAP1 POP PUSH8 0xFFFFFFFFFFFFFFFF DUP2 GT ISZERO PUSH2 0x6F3 JUMPI PUSH2 0x6F2 PUSH2 0x6B6 JUMP JUMPDEST JUMPDEST PUSH1 0x20 DUP4 ADD SWAP2 POP DUP4 PUSH1 0x1 DUP3 MUL DUP4 ADD GT ISZERO PUSH2 0x70F JUMPI PUSH2 0x70E PUSH2 0x6BB JUMP JUMPDEST JUMPDEST SWAP3 POP SWAP3 SWAP1 POP JUMP JUMPDEST PUSH1 0x0 DUP1 PUSH1 0x0 PUSH1 0x40 DUP5 DUP7 SUB SLT ISZERO PUSH2 0x72F JUMPI PUSH2 0x72E PUSH2 0x5BC JUMP JUMPDEST JUMPDEST PUSH1 0x0 PUSH2 0x73D DUP7 DUP3 DUP8 ADD PUSH2 0x69C JUMP JUMPDEST SWAP4 POP POP PUSH1 0x20 DUP5 ADD CALLDATALOAD PUSH8 0xFFFFFFFFFFFFFFFF DUP2 GT ISZERO PUSH2 0x75E JUMPI PUSH2 0x75D PUSH2 0x5C1 JUMP JUMPDEST JUMPDEST PUSH2 0x76A DUP7 DUP3 DUP8 ADD PUSH2 0x6C0 JUMP JUMPDEST SWAP3 POP SWAP3 POP POP SWAP3 POP SWAP3 POP SWAP3 JUMP JUMPDEST PUSH1 0x0 PUSH1 0x20 DUP3 DUP5 SUB SLT ISZERO PUSH2 0x78C JUMPI PUSH2 0x78B PUSH2 0x5BC JUMP JUMPDEST JUMPDEST PUSH1 0x0 PUSH2 0x79A DUP5 DUP3 DUP6 ADD PUSH2 0x69C JUMP JUMPDEST SWAP2 POP POP SWAP3 SWAP2 POP POP JUMP JUMPDEST PUSH1 0x0 DUP2 MLOAD SWAP1 POP SWAP2 SWAP1 POP JUMP JUMPDEST PUSH1 0x0 DUP3 DUP3 MSTORE PUSH1 0x20 DUP3 ADD SWAP1 POP SWAP3 SWAP2 POP POP JUMP JUMPDEST PUSH1 0x0 JUMPDEST DUP4 DUP2 LT ISZERO PUSH2 0x7DD JUMPI DUP1 DUP3 ADD MLOAD DUP2 DUP5 ADD MSTORE PUSH1 0x20 DUP2 ADD SWAP1 POP PUSH2 0x7C2 JUMP JUMPDEST PUSH1 0x0 DUP5 DUP5 ADD MSTORE POP POP POP POP JUMP JUMPDEST PUSH1 0x0 PUSH1 0x1F NOT PUSH1 0x1F DUP4 ADD AND SWAP1 POP SWAP2 SWAP1 POP JUMP JUMPDEST PUSH1 0x0 PUSH2 0x805 DUP3 PUSH2 0x7A3 JUMP JUMPDEST PUSH2 0x80F DUP2 DUP6 PUSH2 0x7AE JUMP JUMPDEST SWAP4 POP PUSH2 0x81F DUP2 DUP6 PUSH1 0x20 DUP7 ADD PUSH2 0x7BF JUMP JUMPDEST PUSH2 0x828 DUP2 PUSH2 0x7E9 JUMP JUMPDEST DUP5 ADD SWAP2 POP POP SWAP3 SWAP2 POP POP JUMP JUMPDEST PUSH1 0x0 DUP2 ISZERO ISZERO SWAP1 POP SWAP2 SWAP1 POP JUMP JUMPDEST PUSH2 0x848 DUP2 PUSH2 0x833 JUMP JUMPDEST DUP3 MSTORE POP POP JUMP JUMPDEST PUSH1 0x0 PUSH1 0x60 DUP3 ADD SWAP1 POP DUP2 DUP2 SUB PUSH1 0x0 DUP4 ADD MSTORE PUSH2 0x868 DUP2 DUP7 PUSH2 0x7FA JUMP JUMPDEST SWAP1 POP PUSH2 0x877 PUSH1 0x20 DUP4 ADD DUP6 PUSH2 0x65B JUMP JUMPDEST PUSH2 0x884 PUSH1 0x40 DUP4 ADD DUP5 PUSH2 0x83F JUMP JUMPDEST SWAP5 SWAP4 POP POP POP POP JUMP JUMPDEST PUSH32 0x4E487B7100000000000000000000000000000000000000000000000000000000 PUSH1 0x0 MSTORE PUSH1 0x11 PUSH1 0x4 MSTORE PUSH1 0x24 PUSH1 0x0 REVERT JUMPDEST PUSH1 0x0 PUSH2 0x8C6 DUP3 PUSH2 0x651 JUMP JUMPDEST SWAP2 POP PUSH2 0x8D1 DUP4 PUSH2 0x651 JUMP JUMPDEST SWAP3 POP DUP3 DUP3 SUB SWAP1 POP DUP2 DUP2 GT ISZERO PUSH2 0x8E9 JUMPI PUSH2 0x8E8 PUSH2 0x88C JUMP JUMPDEST JUMPDEST SWAP3 SWAP2 POP POP JUMP JUMPDEST PUSH32 0x4E487B7100000000000000000000000000000000000000000000000000000000 PUSH1 0x0 MSTORE PUSH1 0x41 PUSH1 0x4 MSTORE PUSH1 0x24 PUSH1 0x0 REVERT JUMPDEST PUSH32 0x4E487B7100000000000000000000000000000000000000000000000000000000 PUSH1 0x0 MSTORE PUSH1 0x22 PUSH1 0x4 MSTORE PUSH1 0x24 PUSH1 0x0 REVERT JUMPDEST PUSH1 0x0 PUSH1 0x2 DUP3 DIV SWAP1 POP PUSH1 0x1 DUP3 AND DUP1 PUSH2 0x965 JUMPI PUSH1 0x7F DUP3 AND SWAP2 POP JUMPDEST PUSH1 0x20 DUP3 LT DUP2 SUB PUSH2 0x978 JUMPI PUSH2 0x977 PUSH2 0x91E JUMP JUMPDEST JUMPDEST POP SWAP2 SWAP1 POP JUMP JUMPDEST PUSH1 0x0 DUP2 SWAP1 POP DUP2 PUSH1 0x0 MSTORE PUSH1 0x20 PUSH1 0x0 KECCAK256 SWAP1 POP SWAP2 SWAP1 POP JUMP JUMPDEST PUSH1 0x0 PUSH1 0x20 PUSH1 0x1F DUP4 ADD DIV SWAP1 POP SWAP2 SWAP1 POP JUMP JUMPDEST PUSH1 0x0 DUP3 DUP3 SHL SWAP1 POP SWAP3 SWAP2 POP POP JUMP JUMPDEST PUSH1 0x0 PUSH1 0x8 DUP4 MUL PUSH2 0x9E0 PUSH32 0xFFFFFFFFFFFFFFFFFFFFFFFFFFFFFFFFFFFFFFFFFFFFFFFFFFFFFFFFFFFFFFFF DUP3 PUSH2 0x9A3 JUMP JUMPDEST PUSH2 0x9EA DUP7 DUP4 PUSH2 0x9A3 JUMP JUMPDEST SWAP6 POP DUP1 NOT DUP5 AND SWAP4 POP DUP1 DUP7 AND DUP5 OR SWAP3 POP POP POP SWAP4 SWAP3 POP POP POP JUMP JUMPDEST PUSH1 0x0 DUP2 SWAP1 POP SWAP2 SWAP1 POP JUMP JUMPDEST PUSH1 0x0 PUSH2 0xA27 PUSH2 0xA22 PUSH2 0xA1D DUP5 PUSH2 0x651 JUMP JUMPDEST PUSH2 0xA02 JUMP JUMPDEST PUSH2 0x651 JUMP JUMPDEST SWAP1 POP SWAP2 SWAP1 POP JUMP JUMPDEST PUSH1 0x0 DUP2 SWAP1 POP SWAP2 SWAP1 POP JUMP JUMPDEST PUSH2 0xA41 DUP4 PUSH2 0xA0C JUMP JUMPDEST PUSH2 0xA55 PUSH2 0xA4D DUP3 PUSH2 0xA2E JUMP JUMPDEST DUP5 DUP5 SLOAD PUSH2 0x9B0 JUMP JUMPDEST DUP3 SSTORE POP POP POP POP JUMP JUMPDEST PUSH1 0x0 SWAP1 JUMP JUMPDEST PUSH2 0xA6A PUSH2 0xA5D JUMP JUMPDEST PUSH2 0xA75 DUP2 DUP5 DUP5 PUSH2 0xA38 JUMP JUMPDEST POP POP POP JUMP JUMPDEST JUMPDEST DUP2 DUP2 LT ISZERO PUSH2 0xA99 JUMPI PUSH2 0xA8E PUSH1 0x0 DUP3 PUSH2 0xA62 JUMP JUMPDEST PUSH1 0x1 DUP2 ADD SWAP1 POP PUSH2 0xA7B JUMP JUMPDEST POP POP JUMP JUMPDEST PUSH1 0x1F DUP3 GT ISZERO PUSH2 0xADE JUMPI PUSH2 0xAAF DUP2 PUSH2 0x97E JUMP JUMPDEST PUSH2 0xAB8 DUP5 PUSH2 0x993 JUMP JUMPDEST DUP2 ADD PUSH1 0x20 DUP6 LT ISZERO PUSH2 0xAC7 JUMPI DUP2 SWAP1 POP JUMPDEST PUSH2 0xADB PUSH2 0xAD3 DUP6 PUSH2 0x993 JUMP JUMPDEST DUP4 ADD DUP3 PUSH2 0xA7A JUMP JUMPDEST POP POP JUMPDEST POP POP POP JUMP JUMPDEST PUSH1 0x0 DUP3 DUP3 SHR SWAP1 POP SWAP3 SWAP2 POP POP JUMP JUMPDEST PUSH1 0x0 PUSH2 0xB01 PUSH1 0x0 NOT DUP5 PUSH1 0x8 MUL PUSH2 0xAE3 JUMP JUMPDEST NOT DUP1 DUP4 AND SWAP2 POP POP SWAP3 SWAP2 POP POP JUMP JUMPDEST PUSH1 0x0 PUSH2 0xB1A DUP4 DUP4 PUSH2 0xAF0 JUMP JUMPDEST SWAP2 POP DUP3 PUSH1 0x2 MUL DUP3 OR SWAP1 POP SWAP3 SWAP2 POP POP JUMP JUMPDEST PUSH2 0xB33 DUP3 PUSH2 0x7A3 JUMP JUMPDEST PUSH8 0xFFFFFFFFFFFFFFFF DUP2 GT ISZERO PUSH2 0xB4C JUMPI PUSH2 0xB4B PUSH2 0x8EF JUMP JUMPDEST JUMPDEST PUSH2 0xB56 DUP3 SLOAD PUSH2 0x94D JUMP JUMPDEST PUSH2 0xB61 DUP3 DUP3 DUP6 PUSH2 0xA9D JUMP JUMPDEST PUSH1 0x0 PUSH1 0x20 SWAP1 POP PUSH1 0x1F DUP4 GT PUSH1 0x1 DUP2 EQ PUSH2 0xB94 JUMPI PUSH1 0x0 DUP5 ISZERO PUSH2 0xB82 JUMPI DUP3 DUP8 ADD MLOAD SWAP1 POP JUMPDEST PUSH2 0xB8C DUP6 DUP3 PUSH2 0xB0E JUMP JUMPDEST DUP7 SSTORE POP PUSH2 0xBF4 JUMP JUMPDEST PUSH1 0x1F NOT DUP5 AND PUSH2 0xBA2 DUP7 PUSH2 0x97E JUMP JUMPDEST PUSH1 0x0 JUMPDEST DUP3 DUP2 LT ISZERO PUSH2 0xBCA JUMPI DUP5 DUP10 ADD MLOAD DUP3 SSTORE PUSH1 0x1 DUP3 ADD SWAP2 POP PUSH1 0x20 DUP6 ADD SWAP5 POP PUSH1 0x20 DUP2 ADD SWAP1 POP PUSH2 0xBA5 JUMP JUMPDEST DUP7 DUP4 LT ISZERO PUSH2 0xBE7 JUMPI DUP5 DUP10 ADD MLOAD PUSH2 0xBE3 PUSH1 0x1F DUP10 AND DUP3 PUSH2 0xAF0 JUMP JUMPDEST DUP4 SSTORE POP JUMPDEST PUSH1 0x1 PUSH1 0x2 DUP9 MUL ADD DUP9 SSTORE POP POP POP JUMPDEST POP POP POP POP POP POP JUMP JUMPDEST PUSH1 0x0 PUSH2 0xC07 DUP3 PUSH2 0x651 JUMP JUMPDEST SWAP2 POP PUSH2 0xC12 DUP4 PUSH2 0x651 JUMP JUMPDEST SWAP3 POP DUP3 DUP3 ADD SWAP1 POP DUP1 DUP3 GT ISZERO PUSH2 0xC2A JUMPI PUSH2 0xC29 PUSH2 0x88C JUMP JUMPDEST JUMPDEST SWAP3 SWAP2 POP POP JUMP JUMPDEST PUSH1 0x0 PUSH2 0xC3B DUP3 PUSH2 0x651 JUMP JUMPDEST SWAP2 POP PUSH2 0xC46 DUP4 PUSH2 0x651 JUMP JUMPDEST SWAP3 POP DUP3 DUP3 MUL PUSH2 0xC54 DUP2 PUSH2 0x651 JUMP JUMPDEST SWAP2 POP DUP3 DUP3 DIV DUP5 EQ DUP4 ISZERO OR PUSH2 0xC6B JUMPI PUSH2 0xC6A PUSH2 0x88C JUMP JUMPDEST JUMPDEST POP SWAP3 SWAP2 POP POP JUMP JUMPDEST PUSH32 0x4E487B7100000000000000000000000000000000000000000000000000000000 PUSH1 0x0 MSTORE PUSH1 0x12 PUSH1 0x4 MSTORE PUSH1 0x24 PUSH1 0x0 REVERT JUMPDEST PUSH1 0x0 PUSH2 0xCAC DUP3 PUSH2 0x651 JUMP JUMPDEST SWAP2 POP PUSH2 0xCB7 DUP4 PUSH2 0x651 JUMP JUMPDEST SWAP3 POP DUP3 PUSH2 0xCC7 JUMPI PUSH2 0xCC6 PUSH2 0xC72 JUMP JUMPDEST JUMPDEST DUP3 DUP3 DIV SWAP1 POP SWAP3 SWAP2 POP POP JUMP INVALID LOG2 PUSH5 0x6970667358 0x22 SLT KECCAK256 0xEE SGT DUP10 0xE6 RETURN 0xE3 RETURN PUSH6 0x82F9B66A4736 0xD4 EXTCODESIZE SWAP15 KECCAK256 BYTE 0xE8 0xC5 0xC4 0xC2 ORIGIN PUSH29 0xE8612D9951AD6264736F6C634300081300330000000000000000000000 "
		},
		"gasEstimates": {
			"creation": {
				"codeDepositCost": "667200",
				"executionCost": "5708",
				"totalCost": "672908"
			},
			"external": {
				"balances(address)": "2792",
				"depositar(uint256,string)": "infinite",
				"dineroTotal()": "2451",
				"registros(uint256)": "infinite",
				"retirar(uint256,string)": "infinite",
				"share()": "infinite"
			}
		},
		"methodIdentifiers": {
			"balances(address)": "27e235e3",
			"depositar(uint256,string)": "9cc6ab7a",
			"dineroTotal()": "45ce890f",
			"registros(uint256)": "ded39a5d",
			"retirar(uint256,string)": "3470c714",
			"share()": "a8d5fd65"
		}
	},
	"abi": [
		{
			"inputs": [
				{
					"internalType": "address",
					"name": "",
					"type": "address"
				}
			],
			"name": "balances",
			"outputs": [
				{
					"internalType": "uint256",
					"name": "",
					"type": "uint256"
				}
			],
			"stateMutability": "view",
			"type": "function"
		},
		{
			"inputs": [
				{
					"internalType": "uint256",
					"name": "dinero",
					"type": "uint256"
				},
				{
					"internalType": "string",
					"name": "nombre",
					"type": "string"
				}
			],
			"name": "depositar",
			"outputs": [],
			"stateMutability": "nonpayable",
			"type": "function"
		},
		{
			"inputs": [],
			"name": "dineroTotal",
			"outputs": [
				{
					"internalType": "uint256",
					"name": "",
					"type": "uint256"
				}
			],
			"stateMutability": "view",
			"type": "function"
		},
		{
			"inputs": [
				{
					"internalType": "uint256",
					"name": "",
					"type": "uint256"
				}
			],
			"name": "registros",
			"outputs": [
				{
					"internalType": "string",
					"name": "nombre",
					"type": "string"
				},
				{
					"internalType": "uint256",
					"name": "cantidad",
					"type": "uint256"
				},
				{
					"internalType": "bool",
					"name": "tipo",
					"type": "bool"
				}
			],
			"stateMutability": "view",
			"type": "function"
		},
		{
			"inputs": [
				{
					"internalType": "uint256",
					"name": "dinero",
					"type": "uint256"
				},
				{
					"internalType": "string",
					"name": "nombre",
					"type": "string"
				}
			],
			"name": "retirar",
			"outputs": [],
			"stateMutability": "nonpayable",
			"type": "function"
		},
		{
			"inputs": [],
			"name": "share",
			"outputs": [
				{
					"internalType": "uint256",
					"name": "",
					"type": "uint256"
				}
			],
			"stateMutability": "view",
			"type": "function"
		}
	]
}